{
  "_format": "hh-sol-artifact-1",
  "contractName": "CryptOrchidsMock",
  "sourceName": "contracts/test/CryptorchidsMock.sol",
  "abi": [
    {
      "inputs": [
        {
          "internalType": "address",
          "name": "_VRFCoordinator",
          "type": "address"
        },
        {
          "internalType": "address",
          "name": "_LinkToken",
          "type": "address"
        },
        {
          "internalType": "bytes32",
          "name": "_keyhash",
          "type": "bytes32"
        }
      ],
      "stateMutability": "nonpayable",
      "type": "constructor"
    },
    {
      "anonymous": false,
      "inputs": [
        {
          "indexed": true,
          "internalType": "address",
          "name": "owner",
          "type": "address"
        },
        {
          "indexed": true,
          "internalType": "address",
          "name": "approved",
          "type": "address"
        },
        {
          "indexed": true,
          "internalType": "uint256",
          "name": "tokenId",
          "type": "uint256"
        }
      ],
      "name": "Approval",
      "type": "event"
    },
    {
      "anonymous": false,
      "inputs": [
        {
          "indexed": true,
          "internalType": "address",
          "name": "owner",
          "type": "address"
        },
        {
          "indexed": true,
          "internalType": "address",
          "name": "operator",
          "type": "address"
        },
        {
          "indexed": false,
          "internalType": "bool",
          "name": "approved",
          "type": "bool"
        }
      ],
      "name": "ApprovalForAll",
      "type": "event"
    },
    {
      "anonymous": false,
      "inputs": [
        {
          "indexed": false,
          "internalType": "uint256",
          "name": "tokenId",
          "type": "uint256"
        }
      ],
      "name": "Killed",
      "type": "event"
    },
    {
      "anonymous": false,
      "inputs": [
        {
          "indexed": true,
          "internalType": "address",
          "name": "previousOwner",
          "type": "address"
        },
        {
          "indexed": true,
          "internalType": "address",
          "name": "newOwner",
          "type": "address"
        }
      ],
      "name": "OwnershipTransferred",
      "type": "event"
    },
    {
      "anonymous": false,
      "inputs": [
        {
          "indexed": false,
          "internalType": "address",
          "name": "account",
          "type": "address"
        }
      ],
      "name": "Paused",
      "type": "event"
    },
    {
      "anonymous": false,
      "inputs": [
        {
          "indexed": false,
          "internalType": "uint256",
          "name": "tokenId",
          "type": "uint256"
        },
        {
          "indexed": false,
          "internalType": "string",
          "name": "latinSpecies",
          "type": "string"
        },
        {
          "indexed": false,
          "internalType": "uint256",
          "name": "timestamp",
          "type": "uint256"
        },
        {
          "indexed": false,
          "internalType": "address",
          "name": "tokenOwner",
          "type": "address"
        }
      ],
      "name": "Planted",
      "type": "event"
    },
    {
      "anonymous": false,
      "inputs": [
        {
          "indexed": false,
          "internalType": "bytes32",
          "name": "requestId",
          "type": "bytes32"
        }
      ],
      "name": "RequestedRandomness",
      "type": "event"
    },
    {
      "anonymous": false,
      "inputs": [
        {
          "indexed": true,
          "internalType": "bytes32",
          "name": "role",
          "type": "bytes32"
        },
        {
          "indexed": true,
          "internalType": "bytes32",
          "name": "previousAdminRole",
          "type": "bytes32"
        },
        {
          "indexed": true,
          "internalType": "bytes32",
          "name": "newAdminRole",
          "type": "bytes32"
        }
      ],
      "name": "RoleAdminChanged",
      "type": "event"
    },
    {
      "anonymous": false,
      "inputs": [
        {
          "indexed": true,
          "internalType": "bytes32",
          "name": "role",
          "type": "bytes32"
        },
        {
          "indexed": true,
          "internalType": "address",
          "name": "account",
          "type": "address"
        },
        {
          "indexed": true,
          "internalType": "address",
          "name": "sender",
          "type": "address"
        }
      ],
      "name": "RoleGranted",
      "type": "event"
    },
    {
      "anonymous": false,
      "inputs": [
        {
          "indexed": true,
          "internalType": "bytes32",
          "name": "role",
          "type": "bytes32"
        },
        {
          "indexed": true,
          "internalType": "address",
          "name": "account",
          "type": "address"
        },
        {
          "indexed": true,
          "internalType": "address",
          "name": "sender",
          "type": "address"
        }
      ],
      "name": "RoleRevoked",
      "type": "event"
    },
    {
      "anonymous": false,
      "inputs": [
        {
          "indexed": true,
          "internalType": "address",
          "name": "from",
          "type": "address"
        },
        {
          "indexed": true,
          "internalType": "address",
          "name": "to",
          "type": "address"
        },
        {
          "indexed": true,
          "internalType": "uint256",
          "name": "tokenId",
          "type": "uint256"
        }
      ],
      "name": "Transfer",
      "type": "event"
    },
    {
      "anonymous": false,
      "inputs": [
        {
          "indexed": false,
          "internalType": "address",
          "name": "account",
          "type": "address"
        }
      ],
      "name": "Unpaused",
      "type": "event"
    },
    {
      "anonymous": false,
      "inputs": [
        {
          "indexed": false,
          "internalType": "uint256",
          "name": "tokenId",
          "type": "uint256"
        },
        {
          "indexed": false,
          "internalType": "uint256",
          "name": "waterLevel",
          "type": "uint256"
        }
      ],
      "name": "Watered",
      "type": "event"
    },
    {
      "inputs": [],
      "name": "DEFAULT_ADMIN_ROLE",
      "outputs": [
        {
          "internalType": "bytes32",
          "name": "",
          "type": "bytes32"
        }
      ],
      "stateMutability": "view",
      "type": "function"
    },
    {
      "inputs": [],
      "name": "GROWTH_CYCLE",
      "outputs": [
        {
          "internalType": "uint256",
          "name": "",
          "type": "uint256"
        }
      ],
      "stateMutability": "view",
      "type": "function"
    },
    {
      "inputs": [],
      "name": "LinkToken",
      "outputs": [
        {
          "internalType": "address",
          "name": "",
          "type": "address"
        }
      ],
      "stateMutability": "view",
      "type": "function"
    },
    {
      "inputs": [],
      "name": "MAX_CRYPTORCHIDS",
      "outputs": [
        {
          "internalType": "uint256",
          "name": "",
          "type": "uint256"
        }
      ],
      "stateMutability": "view",
      "type": "function"
    },
    {
      "inputs": [],
      "name": "MINTER_ROLE",
      "outputs": [
        {
          "internalType": "bytes32",
          "name": "",
          "type": "bytes32"
        }
      ],
      "stateMutability": "view",
      "type": "function"
    },
    {
      "inputs": [],
      "name": "PAUSER_ROLE",
      "outputs": [
        {
          "internalType": "bytes32",
          "name": "",
          "type": "bytes32"
        }
      ],
      "stateMutability": "view",
      "type": "function"
    },
    {
      "inputs": [],
      "name": "VRFCoordinator",
      "outputs": [
        {
          "internalType": "address",
          "name": "",
          "type": "address"
        }
      ],
      "stateMutability": "view",
      "type": "function"
    },
    {
      "inputs": [],
      "name": "WATERING_WINDOW",
      "outputs": [
        {
          "internalType": "uint256",
          "name": "",
          "type": "uint256"
        }
      ],
      "stateMutability": "view",
      "type": "function"
    },
    {
      "inputs": [
        {
          "internalType": "uint256",
          "name": "tokenId",
          "type": "uint256"
        }
      ],
      "name": "alive",
      "outputs": [
        {
          "internalType": "bool",
          "name": "",
          "type": "bool"
        }
      ],
      "stateMutability": "view",
      "type": "function"
    },
    {
      "inputs": [
        {
          "internalType": "address",
          "name": "to",
          "type": "address"
        },
        {
          "internalType": "uint256",
          "name": "tokenId",
          "type": "uint256"
        }
      ],
      "name": "approve",
      "outputs": [],
      "stateMutability": "nonpayable",
      "type": "function"
    },
    {
      "inputs": [
        {
          "internalType": "address",
          "name": "owner",
          "type": "address"
        }
      ],
      "name": "balanceOf",
      "outputs": [
        {
          "internalType": "uint256",
          "name": "",
          "type": "uint256"
        }
      ],
      "stateMutability": "view",
      "type": "function"
    },
    {
      "inputs": [],
      "name": "baseURI",
      "outputs": [
        {
          "internalType": "string",
          "name": "",
          "type": "string"
        }
      ],
      "stateMutability": "view",
      "type": "function"
    },
    {
      "inputs": [
        {
          "internalType": "uint256",
          "name": "tokenId",
          "type": "uint256"
        }
      ],
      "name": "burn",
      "outputs": [],
      "stateMutability": "nonpayable",
      "type": "function"
    },
    {
      "inputs": [
        {
          "internalType": "uint256",
          "name": "tokenId",
          "type": "uint256"
        }
      ],
      "name": "compost",
      "outputs": [],
      "stateMutability": "nonpayable",
      "type": "function"
    },
    {
      "inputs": [
        {
          "internalType": "uint256",
          "name": "",
          "type": "uint256"
        }
      ],
      "name": "cryptorchids",
      "outputs": [
        {
          "internalType": "string",
          "name": "species",
          "type": "string"
        },
        {
          "internalType": "uint256",
          "name": "plantedAt",
          "type": "uint256"
        },
        {
          "internalType": "uint256",
          "name": "waterLevel",
          "type": "uint256"
        }
      ],
      "stateMutability": "view",
      "type": "function"
    },
    {
      "inputs": [],
      "name": "currentPrice",
      "outputs": [
        {
          "internalType": "uint256",
          "name": "price",
          "type": "uint256"
        }
      ],
      "stateMutability": "view",
      "type": "function"
    },
    {
      "inputs": [
        {
          "internalType": "uint256",
          "name": "tokenId",
          "type": "uint256"
        }
      ],
      "name": "flowering",
      "outputs": [
        {
          "internalType": "bool",
          "name": "",
          "type": "bool"
        }
      ],
      "stateMutability": "view",
      "type": "function"
    },
    {
      "inputs": [
        {
          "internalType": "uint256",
          "name": "tokenId",
          "type": "uint256"
        },
        {
          "internalType": "uint256",
          "name": "userProvidedSeed",
          "type": "uint256"
        }
      ],
      "name": "germinate",
      "outputs": [],
      "stateMutability": "nonpayable",
      "type": "function"
    },
    {
      "inputs": [
        {
          "internalType": "uint256",
          "name": "tokenId",
          "type": "uint256"
        }
      ],
      "name": "getApproved",
      "outputs": [
        {
          "internalType": "address",
          "name": "",
          "type": "address"
        }
      ],
      "stateMutability": "view",
      "type": "function"
    },
    {
      "inputs": [
        {
          "internalType": "bytes32",
          "name": "role",
          "type": "bytes32"
        }
      ],
      "name": "getRoleAdmin",
      "outputs": [
        {
          "internalType": "bytes32",
          "name": "",
          "type": "bytes32"
        }
      ],
      "stateMutability": "view",
      "type": "function"
    },
    {
      "inputs": [
        {
          "internalType": "bytes32",
          "name": "role",
          "type": "bytes32"
        },
        {
          "internalType": "uint256",
          "name": "index",
          "type": "uint256"
        }
      ],
      "name": "getRoleMember",
      "outputs": [
        {
          "internalType": "address",
          "name": "",
          "type": "address"
        }
      ],
      "stateMutability": "view",
      "type": "function"
    },
    {
      "inputs": [
        {
          "internalType": "bytes32",
          "name": "role",
          "type": "bytes32"
        }
      ],
      "name": "getRoleMemberCount",
      "outputs": [
        {
          "internalType": "uint256",
          "name": "",
          "type": "uint256"
        }
      ],
      "stateMutability": "view",
      "type": "function"
    },
    {
      "inputs": [
        {
          "internalType": "uint256",
          "name": "tokenId",
          "type": "uint256"
        }
      ],
      "name": "getTokenMetadata",
      "outputs": [
        {
          "internalType": "string",
          "name": "",
          "type": "string"
        },
        {
          "internalType": "uint256",
          "name": "",
          "type": "uint256"
        },
        {
          "internalType": "uint256",
          "name": "",
          "type": "uint256"
        }
      ],
      "stateMutability": "view",
      "type": "function"
    },
    {
      "inputs": [
        {
          "internalType": "bytes32",
          "name": "role",
          "type": "bytes32"
        },
        {
          "internalType": "address",
          "name": "account",
          "type": "address"
        }
      ],
      "name": "grantRole",
      "outputs": [],
      "stateMutability": "nonpayable",
      "type": "function"
    },
    {
      "inputs": [
        {
          "internalType": "uint256",
          "name": "tokenId",
          "type": "uint256"
        }
      ],
      "name": "growthStage",
      "outputs": [
        {
          "internalType": "enum CryptOrchidERC721.Stage",
          "name": "",
          "type": "uint8"
        }
      ],
      "stateMutability": "view",
      "type": "function"
    },
    {
      "inputs": [
        {
          "internalType": "bytes32",
          "name": "role",
          "type": "bytes32"
        },
        {
          "internalType": "address",
          "name": "account",
          "type": "address"
        }
      ],
      "name": "hasRole",
      "outputs": [
        {
          "internalType": "bool",
          "name": "",
          "type": "bool"
        }
      ],
      "stateMutability": "view",
      "type": "function"
    },
    {
      "inputs": [
        {
          "internalType": "uint256",
          "name": "tokenId",
          "type": "uint256"
        }
      ],
      "name": "heartbeat",
      "outputs": [],
      "stateMutability": "nonpayable",
      "type": "function"
    },
    {
      "inputs": [
        {
          "internalType": "address",
          "name": "owner",
          "type": "address"
        },
        {
          "internalType": "address",
          "name": "operator",
          "type": "address"
        }
      ],
      "name": "isApprovedForAll",
      "outputs": [
        {
          "internalType": "bool",
          "name": "",
          "type": "bool"
        }
      ],
      "stateMutability": "view",
      "type": "function"
    },
    {
      "inputs": [
        {
          "internalType": "address",
          "name": "to",
          "type": "address"
        }
      ],
      "name": "mint",
      "outputs": [],
      "stateMutability": "nonpayable",
      "type": "function"
    },
    {
      "inputs": [],
      "name": "name",
      "outputs": [
        {
          "internalType": "string",
          "name": "",
          "type": "string"
        }
      ],
      "stateMutability": "view",
      "type": "function"
    },
    {
      "inputs": [],
      "name": "owner",
      "outputs": [
        {
          "internalType": "address",
          "name": "",
          "type": "address"
        }
      ],
      "stateMutability": "view",
      "type": "function"
    },
    {
      "inputs": [
        {
          "internalType": "uint256",
          "name": "tokenId",
          "type": "uint256"
        }
      ],
      "name": "ownerOf",
      "outputs": [
        {
          "internalType": "address",
          "name": "",
          "type": "address"
        }
      ],
      "stateMutability": "view",
      "type": "function"
    },
    {
      "inputs": [],
      "name": "pause",
      "outputs": [],
      "stateMutability": "nonpayable",
      "type": "function"
    },
    {
      "inputs": [],
      "name": "paused",
      "outputs": [
        {
          "internalType": "bool",
          "name": "",
          "type": "bool"
        }
      ],
      "stateMutability": "view",
      "type": "function"
    },
    {
      "inputs": [],
      "name": "randomResult",
      "outputs": [
        {
          "internalType": "uint256",
          "name": "",
          "type": "uint256"
        }
      ],
      "stateMutability": "view",
      "type": "function"
    },
    {
      "inputs": [
        {
          "internalType": "bytes32",
          "name": "requestId",
          "type": "bytes32"
        },
        {
          "internalType": "uint256",
          "name": "randomness",
          "type": "uint256"
        }
      ],
      "name": "rawFulfillRandomness",
      "outputs": [],
      "stateMutability": "nonpayable",
      "type": "function"
    },
    {
      "inputs": [],
      "name": "renounceOwnership",
      "outputs": [],
      "stateMutability": "nonpayable",
      "type": "function"
    },
    {
      "inputs": [
        {
          "internalType": "bytes32",
          "name": "role",
          "type": "bytes32"
        },
        {
          "internalType": "address",
          "name": "account",
          "type": "address"
        }
      ],
      "name": "renounceRole",
      "outputs": [],
      "stateMutability": "nonpayable",
      "type": "function"
    },
    {
      "inputs": [
        {
          "internalType": "bytes32",
          "name": "",
          "type": "bytes32"
        }
      ],
      "name": "requestToToken",
      "outputs": [
        {
          "internalType": "uint256",
          "name": "",
          "type": "uint256"
        }
      ],
      "stateMutability": "view",
      "type": "function"
    },
    {
      "inputs": [
        {
          "internalType": "bytes32",
          "name": "role",
          "type": "bytes32"
        },
        {
          "internalType": "address",
          "name": "account",
          "type": "address"
        }
      ],
      "name": "revokeRole",
      "outputs": [],
      "stateMutability": "nonpayable",
      "type": "function"
    },
    {
      "inputs": [
        {
          "internalType": "address",
          "name": "from",
          "type": "address"
        },
        {
          "internalType": "address",
          "name": "to",
          "type": "address"
        },
        {
          "internalType": "uint256",
          "name": "tokenId",
          "type": "uint256"
        }
      ],
      "name": "safeTransferFrom",
      "outputs": [],
      "stateMutability": "nonpayable",
      "type": "function"
    },
    {
      "inputs": [
        {
          "internalType": "address",
          "name": "from",
          "type": "address"
        },
        {
          "internalType": "address",
          "name": "to",
          "type": "address"
        },
        {
          "internalType": "uint256",
          "name": "tokenId",
          "type": "uint256"
        },
        {
          "internalType": "bytes",
          "name": "_data",
          "type": "bytes"
        }
      ],
      "name": "safeTransferFrom",
      "outputs": [],
      "stateMutability": "nonpayable",
      "type": "function"
    },
    {
      "inputs": [
        {
          "internalType": "address",
          "name": "operator",
          "type": "address"
        },
        {
          "internalType": "bool",
          "name": "approved",
          "type": "bool"
        }
      ],
      "name": "setApprovalForAll",
      "outputs": [],
      "stateMutability": "nonpayable",
      "type": "function"
    },
    {
      "inputs": [],
      "name": "startSale",
      "outputs": [],
      "stateMutability": "nonpayable",
      "type": "function"
    },
    {
      "inputs": [
        {
          "internalType": "bytes4",
          "name": "interfaceId",
          "type": "bytes4"
        }
      ],
      "name": "supportsInterface",
      "outputs": [
        {
          "internalType": "bool",
          "name": "",
          "type": "bool"
        }
      ],
      "stateMutability": "view",
      "type": "function"
    },
    {
      "inputs": [],
      "name": "symbol",
      "outputs": [
        {
          "internalType": "string",
          "name": "",
          "type": "string"
        }
      ],
      "stateMutability": "view",
      "type": "function"
    },
    {
      "inputs": [
        {
          "internalType": "uint256",
          "name": "s",
          "type": "uint256"
        }
      ],
      "name": "timeTravel",
      "outputs": [],
      "stateMutability": "nonpayable",
      "type": "function"
    },
    {
      "inputs": [
        {
          "internalType": "uint256",
          "name": "index",
          "type": "uint256"
        }
      ],
      "name": "tokenByIndex",
      "outputs": [
        {
          "internalType": "uint256",
          "name": "",
          "type": "uint256"
        }
      ],
      "stateMutability": "view",
      "type": "function"
    },
    {
      "inputs": [
        {
          "internalType": "address",
          "name": "owner",
          "type": "address"
        },
        {
          "internalType": "uint256",
          "name": "index",
          "type": "uint256"
        }
      ],
      "name": "tokenOfOwnerByIndex",
      "outputs": [
        {
          "internalType": "uint256",
          "name": "",
          "type": "uint256"
        }
      ],
      "stateMutability": "view",
      "type": "function"
    },
    {
      "inputs": [
        {
          "internalType": "uint256",
          "name": "tokenId",
          "type": "uint256"
        }
      ],
      "name": "tokenURI",
      "outputs": [
        {
          "internalType": "string",
          "name": "",
          "type": "string"
        }
      ],
      "stateMutability": "view",
      "type": "function"
    },
    {
      "inputs": [],
      "name": "totalSupply",
      "outputs": [
        {
          "internalType": "uint256",
          "name": "",
          "type": "uint256"
        }
      ],
      "stateMutability": "view",
      "type": "function"
    },
    {
      "inputs": [
        {
          "internalType": "address",
          "name": "from",
          "type": "address"
        },
        {
          "internalType": "address",
          "name": "to",
          "type": "address"
        },
        {
          "internalType": "uint256",
          "name": "tokenId",
          "type": "uint256"
        }
      ],
      "name": "transferFrom",
      "outputs": [],
      "stateMutability": "nonpayable",
      "type": "function"
    },
    {
      "inputs": [
        {
          "internalType": "address",
          "name": "newOwner",
          "type": "address"
        }
      ],
      "name": "transferOwnership",
      "outputs": [],
      "stateMutability": "nonpayable",
      "type": "function"
    },
    {
      "inputs": [],
      "name": "unpause",
      "outputs": [],
      "stateMutability": "nonpayable",
      "type": "function"
    },
    {
      "inputs": [
        {
          "internalType": "uint256",
          "name": "tokenId",
          "type": "uint256"
        }
      ],
      "name": "water",
      "outputs": [],
      "stateMutability": "nonpayable",
      "type": "function"
    },
    {
      "inputs": [
        {
          "internalType": "uint256",
          "name": "units",
          "type": "uint256"
        }
      ],
      "name": "webMint",
      "outputs": [],
      "stateMutability": "payable",
      "type": "function"
    },
    {
      "inputs": [],
      "name": "withdraw",
      "outputs": [],
      "stateMutability": "nonpayable",
      "type": "function"
    },
    {
      "stateMutability": "payable",
      "type": "receive"
    }
  ],
  "bytecode": "0x6010805460ff19169055610200604052600060c0908152610c0260e0526117ba61010052611f8a610120526123726101405261256661016052612660610180526126c46101a0526126f66101c05261270f6101e0526200006490601190600a62000bc3565b506040805161018081018252601761014082019081527f7368656e7a68656e696361206f72636869646163656165000000000000000000610160830152815281518083018352601881527f7068616c61656e6f70736973206d6963686f6c69747a69690000000000000000602082810191909152808301919091528251808401845260158082527f6775617269616e74686520617572616e74696163610000000000000000000000828401528385019190915283518085018552600e81526d76616e646120636f6572756c656160901b818401526060840152835180850185528181527f637970726970656469756d2063616c63656f6c7573000000000000000000000081840152608084015283518085018552601981527f70617068696f706564696c756d20766965746e616d656e7365000000000000008184015260a0840152835180850185526012808252716d696c746f6e6961206b61796173696d616560701b8285015260c085019190915284518086018652601381527f706c6174616e746865726120617a6f72696361000000000000000000000000008185015260e0850152845180860186529182527f64656e64726f7068796c6178206c696e64656e69690000000000000000000000828401526101008401919091528351808501909452601d84527f70617068696f706564696c756d20726f7468736368696c6469616e756d000000918401919091526101208201929092526200028c9190600a62000c60565b50604080516101c08101909152604b610140820181815282916200586c61016084013981526020016040518060800160405280604c815260200162005702604c9139815260200160405180608001604052806049815260200162005990604991398152602001604051806080016040528060428152602001620058fd604291398152602001604051806080016040528060498152602001620056b96049913981526020016040518060800160405280604d8152602001620057d6604d91398152602001604051806080016040528060468152602001620058b760469139815260200160405180608001604052806047815260200162005b0660479139815260200160405180608001604052806049815260200162005a2660499139815260200160405180608001604052806051815260200162005621605191399052620003d890601c90600a62000c60565b50604080516101c08101909152604b6101408201818152829162005abb61016084013981526020016040518060800160405280604c815260200162005a6f604c91398152602001604051806080016040528060498152602001620058236049913981526020016040518060800160405280604281526020016200574e6042913981526020016040518060800160405280604981526020016200558f6049913981526020016040518060800160405280604d8152602001620059d9604d913981526020016040518060800160405280604681526020016200579060469139815260200160405180608001604052806047815260200162005672604791398152602001604051806080016040528060498152602001620055d86049913981526020016040518060800160405280605181526020016200593f6051913990526200052490602690600a62000c60565b5060006039553480156200053757600080fd5b5060405162005b4d38038062005b4d833981810160405260608110156200055d57600080fd5b50805160208083015160409384015184518086018652600c81526b43727970744f72636869647360a01b8185015285518087018752600581526413d490d21160da1b8186015286518088019097526007875266697066733a2f2f60c81b948701949094529394919390928592859285928592859291908282620005f06301ffc9a760e01b6001600160e01b03620009ed16565b81516200060590600790602085019062000cb3565b5080516200061b90600890602084019062000cb3565b50620006376380ac58cd60e01b6001600160e01b03620009ed16565b62000652635b5e139f60e01b6001600160e01b03620009ed16565b6200066d63780e9d6360e01b6001600160e01b03620009ed16565b5050600b805460ff19169055620006a16000620006926001600160e01b0362000a7516565b6001600160e01b0362000a7a16565b604080516a4d494e5445525f524f4c4560a81b8152905190819003600b019020620006d990620006926001600160e01b0362000a7516565b604080516a5041555345525f524f4c4560a81b8152905190819003600b0190206200071190620006926001600160e01b0362000a7516565b62000725816001600160e01b0362000a9316565b50505060006200073a62000a7560201b60201c565b600d80546001600160a01b0319166001600160a01b038316908117909155604051919250906000907f8be0079c531659141344cd1fd0a4f28419497f9722a3daafe3b4186f6b6457e0908290a3506001600160601b0319606092831b811660a052911b16608052603480546001600160a01b038581166001600160a01b0319928316179092556035805492851692909116919091179055603181905567016345785d8a000060325560005b600a811015620009e057601c81600a8110620007fd57fe5b0160376000601284600a81106200081057fe5b6040805160208082019081529290930180546002600182161561010002600019019091160491840182905292829160609091019084908015620008975780601f106200086b5761010080835404028352916020019162000897565b820191906000526020600020905b8154815290600101906020018083116200087957829003601f168201915b5050925050506040516020818303038152906040528051906020012081526020019081526020016000209080546001816001161561010002031660029004620008e292919062000d34565b50602681600a8110620008f157fe5b0160386000601284600a81106200090457fe5b60408051602080820190815292909301805460026001821615610100026000190190911604918401829052928291606090910190849080156200098b5780601f106200095f576101008083540402835291602001916200098b565b820191906000526020600020905b8154815290600101906020018083116200096d57829003601f168201915b5050925050506040516020818303038152906040528051906020012081526020019081526020016000209080546001816001161561010002031660029004620009d692919062000d34565b50600101620007e5565b5050505050505062000e60565b6001600160e01b0319808216141562000a4d576040805162461bcd60e51b815260206004820152601c60248201527f4552433136353a20696e76616c696420696e7465726661636520696400000000604482015290519081900360640190fd5b6001600160e01b0319166000908152600160208190526040909120805460ff19169091179055565b335b90565b62000a8f82826001600160e01b0362000aa816565b5050565b805162000a8f90600a90602084019062000cb3565b60008281526020818152604090912062000acd918390620034a162000b2a821b17901c565b1562000a8f5762000ae66001600160e01b0362000a7516565b6001600160a01b0316816001600160a01b0316837f2f8788117e7eff1d82e926ec794901d17c78024a50270940304540a733656f0d60405160405180910390a45050565b600062000b4a836001600160a01b0384166001600160e01b0362000b5316565b90505b92915050565b600062000b6a83836001600160e01b0362000bab16565b62000ba25750815460018181018455600084815260208082209093018490558454848252828601909352604090209190915562000b4d565b50600062000b4d565b60009081526001919091016020526040902054151590565b60018301918390821562000c4e5791602002820160005b8382111562000c1c57835183826101000a81548161ffff021916908361ffff160217905550926020019260020160208160010104928301926001030262000bda565b801562000c4c5782816101000a81549061ffff021916905560020160208160010104928301926001030262000c1c565b505b5062000c5c92915062000dae565b5090565b82600a810192821562000ca5579160200282015b8281111562000ca5578251805162000c9491849160209091019062000cb3565b509160200191906001019062000c74565b5062000c5c92915062000dd0565b828054600181600116156101000203166002900490600052602060002090601f016020900481019282601f1062000cf657805160ff191683800117855562000d26565b8280016001018555821562000d26579182015b8281111562000d2657825182559160200191906001019062000d09565b5062000c5c92915062000df8565b828054600181600116156101000203166002900490600052602060002090601f016020900481019282601f1062000d6f578054855562000d26565b8280016001018555821562000d2657600052602060002091601f016020900482015b8281111562000d2657825482559160010191906001019062000d91565b62000a7791905b8082111562000c5c57805461ffff1916815560010162000db5565b62000a7791905b8082111562000c5c57600062000dee828262000e15565b5060010162000dd7565b62000a7791905b8082111562000c5c576000815560010162000dff565b50805460018160011615610100020316600290046000825580601f1062000e3d575062000e5d565b601f01602090049060005260206000209081019062000e5d919062000df8565b50565b60805160601c60a05160601c6146fb62000e946000398061189152806136b3525080612efd528061368452506146fb6000f3fe60806040526004361061037a5760003560e01c80636c0360eb116101d1578063a217fddf11610102578063ca15c873116100a0578063e63ab1e91161006f578063e63ab1e914610d8b578063e985e9c514610da0578063f2fde38b14610ddb578063ffee200c14610e0e57610381565b8063ca15c87314610ce9578063cac21c8f14610d13578063d539139314610d3d578063d547741f14610d5257610381565b8063b66a0e5d116100dc578063b66a0e5d14610b89578063b7aaba2014610b9e578063b88d4fde14610bec578063c87b56dd14610cbf57610381565b8063a217fddf14610b0f578063a22cb46514610b24578063a7eec44b14610b5f57610381565b80638da5cb5b1161016f57806394985ddd1161014957806394985ddd14610a9857806395d89b4114610ac85780639981d4a114610add5780639d1b464a14610afa57610381565b80638da5cb5b14610a1a5780639010d07c14610a2f57806391d1485414610a5f57610381565b8063715018a6116101ab578063715018a6146109965780637bd6f130146109ab5780637fd8d953146109d55780638456cb5914610a0557610381565b80636c0360eb146109245780636e029ad11461093957806370a082311461096357610381565b80633ccfd60b116102ab5780635c975abb116102495780636352211e116102235780636352211e146108885780636573c787146108b25780636a627842146108dc5780636b0c004d1461090f57610381565b80635c975abb1461079957806360316801146107ae57806362ff09d61461085e57610381565b806342842e0e1161028557806342842e0e146106ed57806342966c68146107305780634f6ccce71461075a5780634f8e2fdf1461078457610381565b80633ccfd60b146106ae5780633f4ba83a146106c357806342619f66146106d857610381565b8063182199cd116103185780632f2ff15d116102f25780632f2ff15d146105ee5780632f745c591461062757806333b608631461066057806336568abe1461067557610381565b8063182199cd1461055757806323b872dd14610581578063248a9ca3146105c457610381565b8063095ea7b311610354578063095ea7b3146104b65780631424494d146104f1578063179f0b0a1461051b57806318160ddd1461054257610381565b806301ffc9a71461038657806306fdde03146103e6578063081812fc1461047057610381565b3661038157005b600080fd5b34801561039257600080fd5b506103d2600480360360208110156103a957600080fd5b50357fffffffff0000000000000000000000000000000000000000000000000000000016610e23565b604080519115158252519081900360200190f35b3480156103f257600080fd5b506103fb610e5e565b6040805160208082528351818301528351919283929083019185019080838360005b8381101561043557818101518382015260200161041d565b50505050905090810190601f1680156104625780820380516001836020036101000a031916815260200191505b509250505060405180910390f35b34801561047c57600080fd5b5061049a6004803603602081101561049357600080fd5b5035610ef5565b604080516001600160a01b039092168252519081900360200190f35b3480156104c257600080fd5b506104ef600480360360408110156104d957600080fd5b506001600160a01b038135169060200135610f57565b005b3480156104fd57600080fd5b506104ef6004803603602081101561051457600080fd5b5035611032565b34801561052757600080fd5b5061053061108a565b60408051918252519081900360200190f35b34801561054e57600080fd5b50610530611090565b34801561056357600080fd5b506103d26004803603602081101561057a57600080fd5b50356110a1565b34801561058d57600080fd5b506104ef600480360360608110156105a457600080fd5b506001600160a01b038135811691602081013590911690604001356110c0565b3480156105d057600080fd5b50610530600480360360208110156105e757600080fd5b5035611111565b3480156105fa57600080fd5b506104ef6004803603604081101561061157600080fd5b50803590602001356001600160a01b0316611126565b34801561063357600080fd5b506105306004803603604081101561064a57600080fd5b506001600160a01b038135169060200135611192565b34801561066c57600080fd5b5061049a6111c3565b34801561068157600080fd5b506104ef6004803603604081101561069857600080fd5b50803590602001356001600160a01b03166111d2565b3480156106ba57600080fd5b506104ef611233565b3480156106cf57600080fd5b506104ef6112d6565b3480156106e457600080fd5b50610530611347565b3480156106f957600080fd5b506104ef6004803603606081101561071057600080fd5b506001600160a01b0381358116916020810135909116906040013561134d565b34801561073c57600080fd5b506104ef6004803603602081101561075357600080fd5b5035611368565b34801561076657600080fd5b506105306004803603602081101561077d57600080fd5b50356113b7565b34801561079057600080fd5b5061049a6113d3565b3480156107a557600080fd5b506103d26113e2565b3480156107ba57600080fd5b506107d8600480360360208110156107d157600080fd5b50356113eb565b6040518080602001848152602001838152602001828103825285818151815260200191508051906020019080838360005b83811015610821578181015183820152602001610809565b50505050905090810190601f16801561084e5780820380516001836020036101000a031916815260200191505b5094505050505060405180910390f35b34801561086a57600080fd5b506105306004803603602081101561088157600080fd5b50356114a1565b34801561089457600080fd5b5061049a600480360360208110156108ab57600080fd5b50356114b3565b3480156108be57600080fd5b506103d2600480360360208110156108d557600080fd5b50356114e1565b3480156108e857600080fd5b506104ef600480360360208110156108ff57600080fd5b50356001600160a01b0316611501565b34801561091b57600080fd5b50610530611585565b34801561093057600080fd5b506103fb61158b565b34801561094557600080fd5b506104ef6004803603602081101561095c57600080fd5b50356115ec565b34801561096f57600080fd5b506105306004803603602081101561098657600080fd5b50356001600160a01b031661163e565b3480156109a257600080fd5b506104ef6116a6565b3480156109b757600080fd5b506104ef600480360360208110156109ce57600080fd5b5035611771565b3480156109e157600080fd5b506104ef600480360360408110156109f857600080fd5b5080359060200135611776565b348015610a1157600080fd5b506104ef6117cc565b348015610a2657600080fd5b5061049a61183b565b348015610a3b57600080fd5b5061049a60048036036040811015610a5257600080fd5b508035906020013561184a565b348015610a6b57600080fd5b506103d260048036036040811015610a8257600080fd5b50803590602001356001600160a01b0316611868565b348015610aa457600080fd5b506104ef60048036036040811015610abb57600080fd5b5080359060200135611886565b348015610ad457600080fd5b506103fb61190d565b6104ef60048036036020811015610af357600080fd5b503561196e565b348015610b0657600080fd5b50610530611c42565b348015610b1b57600080fd5b50610530611cfe565b348015610b3057600080fd5b506104ef60048036036040811015610b4757600080fd5b506001600160a01b0381351690602001351515611d03565b348015610b6b57600080fd5b506104ef60048036036020811015610b8257600080fd5b5035611e08565b348015610b9557600080fd5b506104ef611f68565b348015610baa57600080fd5b50610bc860048036036020811015610bc157600080fd5b5035611feb565b60405180826003811115610bd857fe5b60ff16815260200191505060405180910390f35b348015610bf857600080fd5b506104ef60048036036080811015610c0f57600080fd5b6001600160a01b03823581169260208101359091169160408201359190810190608081016060820135640100000000811115610c4a57600080fd5b820183602082011115610c5c57600080fd5b80359060200191846001830284011164010000000083111715610c7e57600080fd5b91908080601f016020809104026020016040519081016040528093929190818152602001838380828437600092019190915250929550612169945050505050565b348015610ccb57600080fd5b506103fb60048036036020811015610ce257600080fd5b50356121c1565b348015610cf557600080fd5b5061053060048036036020811015610d0c57600080fd5b50356125b8565b348015610d1f57600080fd5b506107d860048036036020811015610d3657600080fd5b50356125cf565b348015610d4957600080fd5b5061053061267c565b348015610d5e57600080fd5b506104ef60048036036040811015610d7557600080fd5b50803590602001356001600160a01b031661269f565b348015610d9757600080fd5b506105306126f8565b348015610dac57600080fd5b506103d260048036036040811015610dc357600080fd5b506001600160a01b038135811691602001351661271b565b348015610de757600080fd5b506104ef60048036036020811015610dfe57600080fd5b50356001600160a01b0316612749565b348015610e1a57600080fd5b5061053061286b565b7fffffffff00000000000000000000000000000000000000000000000000000000811660009081526001602052604090205460ff165b919050565b60078054604080516020601f6002600019610100600188161502019095169490940493840181900481028201810190925282815260609390929091830182828015610eea5780601f10610ebf57610100808354040283529160200191610eea565b820191906000526020600020905b815481529060010190602001808311610ecd57829003601f168201915b505050505090505b90565b6000610f0082612871565b610f3b5760405162461bcd60e51b815260040180806020018281038252602c815260200180614498602c913960400191505060405180910390fd5b506000908152600560205260409020546001600160a01b031690565b6000610f62826114b3565b9050806001600160a01b0316836001600160a01b03161415610fb55760405162461bcd60e51b815260040180806020018281038252602181526020018061451d6021913960400191505060405180910390fd5b806001600160a01b0316610fc7612884565b6001600160a01b03161480610fe85750610fe881610fe3612884565b61271b565b6110235760405162461bcd60e51b81526004018080602001828103825260388152602001806143a76038913960400191505060405180910390fd5b61102d8383612888565b505050565b61104361103d612884565b82612903565b61107e5760405162461bcd60e51b81526004018080602001828103825260298152602001806145c16029913960400191505060405180910390fd5b61108781611368565b50565b612a3081565b600061109c60036129a7565b905090565b600060026110ae83611feb565b60038111156110b957fe5b1492915050565b6110cb61103d612884565b6111065760405162461bcd60e51b81526004018080602001828103825260318152602001806145656031913960400191505060405180910390fd5b61102d8383836129b2565b60009081526020819052604090206002015490565b60008281526020819052604090206002015461114990611144612884565b611868565b6111845760405162461bcd60e51b815260040180806020018281038252602f8152602001806141bc602f913960400191505060405180910390fd5b61118e8282612b10565b5050565b6001600160a01b03821660009081526002602052604081206111ba908363ffffffff612b7f16565b90505b92915050565b6034546001600160a01b031681565b6111da612884565b6001600160a01b0316816001600160a01b0316146112295760405162461bcd60e51b815260040180806020018281038252602f815260200180614697602f913960400191505060405180910390fd5b61118e8282612b8b565b61123b612884565b6001600160a01b031661124c61183b565b6001600160a01b0316146112a7576040805162461bcd60e51b815260206004820181905260248201527f4f776e61626c653a2063616c6c6572206973206e6f7420746865206f776e6572604482015290519081900360640190fd5b6040514790339082156108fc029083906000818181858888f1935050505015801561118e573d6000803e3d6000fd5b604080516a5041555345525f524f4c4560a81b8152905190819003600b01902061130290611144612884565b61133d5760405162461bcd60e51b81526004018080602001828103825260408152602001806146576040913960400191505060405180910390fd5b611345612bfa565b565b60335481565b61102d83838360405180602001604052806000815250612169565b61137361103d612884565b6113ae5760405162461bcd60e51b81526004018080602001828103825260308152602001806146276030913960400191505060405180910390fd5b61108781612ca3565b6000806113cb60038463ffffffff612d7c16565b509392505050565b6035546001600160a01b031681565b600b5460ff1690565b6000818152600f60209081526040808320600180820154600280840154845486519481161561010002600019011691909104601f810187900487028401870190955284835260609695869592939192859183018282801561148d5780601f106114625761010080835404028352916020019161148d565b820191906000526020600020905b81548152906001019060200180831161147057829003601f168201915b505050505092509250925092509193909250565b60366020526000908152604090205481565b60006111bd82604051806060016040528060298152602001614409602991396003919063ffffffff612d9816565b600060036114ee83611feb565b60038111156114f957fe5b141592915050565b604080516a4d494e5445525f524f4c4560a81b8152905190819003600b01902061152d90611144612884565b6115685760405162461bcd60e51b815260040180806020018281038252603d8152602001806145ea603d913960400191505060405180910390fd5b61157b81611576600c612daf565b612db3565b611087600c612eed565b61271081565b600a8054604080516020601f6002600019610100600188161502019095169490940493840181900481028201810190925282815260609390929091830182828015610eea5780601f10610ebf57610100808354040283529160200191610eea565b60036115f782611feb565b600381111561160257fe5b1415611087576040805182815290517ff4a991ad9e7f9711696f7bd41529beb4c470d75788573535d4ca3f0857c79ce89181900360200190a150565b60006001600160a01b0382166116855760405162461bcd60e51b815260040180806020018281038252602a8152602001806143df602a913960400191505060405180910390fd5b6001600160a01b03821660009081526002602052604090206111bd906129a7565b6116ae612884565b6001600160a01b03166116bf61183b565b6001600160a01b03161461171a576040805162461bcd60e51b815260206004820181905260248201527f4f776e61626c653a2063616c6c6572206973206e6f7420746865206f776e6572604482015290519081900360640190fd5b600d546040516000916001600160a01b0316907f8be0079c531659141344cd1fd0a4f28419497f9722a3daafe3b4186f6b6457e0908390a3600d805473ffffffffffffffffffffffffffffffffffffffff19169055565b603955565b611787611781612884565b83612903565b6117c25760405162461bcd60e51b815260040180806020018281038252602b815260200180614596602b913960400191505060405180910390fd5b61102d8282612ef6565b604080516a5041555345525f524f4c4560a81b8152905190819003600b0190206117f890611144612884565b6118335760405162461bcd60e51b815260040180806020018281038252603e815260200180614271603e913960400191505060405180910390fd5b611345613037565b600d546001600160a01b031690565b60008281526020819052604081206111ba908363ffffffff612b7f16565b60008281526020819052604081206111ba908363ffffffff6130c716565b336001600160a01b037f00000000000000000000000000000000000000000000000000000000000000001614611903576040805162461bcd60e51b815260206004820152601f60248201527f4f6e6c7920565246436f6f7264696e61746f722063616e2066756c66696c6c00604482015290519081900360640190fd5b61118e82826130dc565b60088054604080516020601f6002600019610100600188161502019095169490940493840181900481028201810190925282815260609390929091830182828015610eea5780601f10610ebf57610100808354040283529160200191610eea565b60105460ff166119c5576040805162461bcd60e51b815260206004820152601560248201527f546865204e75727365727920697320636c6f7365640000000000000000000000604482015290519081900360640190fd5b6119cd611090565b61271003811115611a25576040805162461bcd60e51b815260206004820152601560248201527f4e6f7420656e6f7567682062756c6273206c6566740000000000000000000000604482015290519081900360640190fd5b612710611a30611090565b10611a82576040805162461bcd60e51b815260206004820152601660248201527f53616c652068617320616c726561647920656e64656400000000000000000000604482015290519081900360640190fd5b600081118015611a93575060148111155b611ace5760405162461bcd60e51b81526004018080602001828103825260308152602001806144ed6030913960400191505060405180910390fd5b612710611ae2611adc611090565b83613211565b1115611b35576040805162461bcd60e51b815260206004820152601860248201527f45786365656473204d41585f43525950544f5243484944530000000000000000604482015290519081900360640190fd5b611b46611b40611c42565b8261326b565b341015611b845760405162461bcd60e51b81526004018080602001828103825260238152602001806144326023913960400191505060405180910390fd5b60005b8181101561118e57611b996030612eed565b6000611ba56030612daf565b6040805160a0810182526006606082019081527f6772616e756d0000000000000000000000000000000000000000000000000000608083015281526000196020808301919091526000828401819052848152600f8252929092208151805194955091939092611c18928492910190614079565b5060208201516001820155604090910151600290910155611c3933826132c4565b50600101611b87565b600080611c4d611090565b90506126ac8110611c6957670de0b6b3a7640000915050610ef2565b61251c8110611c83576708e1bc9bf0400000915050610ef2565b611d4c8110611c9d57670470de4df8200000915050610ef2565b610dac8110611cb7576702386f26fc100000915050610ef2565b6105dc8110611cd15767011c37937e080000915050610ef2565b6101f48110611cea57668e1bc9bf040000915050610ef2565b66470de4df820000915050610ef2565b5090565b600081565b611d0b612884565b6001600160a01b0316826001600160a01b03161415611d71576040805162461bcd60e51b815260206004820152601960248201527f4552433732313a20617070726f766520746f2063616c6c657200000000000000604482015290519081900360640190fd5b8060066000611d7e612884565b6001600160a01b03908116825260208083019390935260409182016000908120918716808252919093529120805460ff191692151592909217909155611dc2612884565b60408051841515815290516001600160a01b0392909216917f17307eab39ab6107e8899845ad3d59bd9653f200f220920489ca2b5937696c319181900360200190a35050565b611e1361103d612884565b611e4e5760405162461bcd60e51b81526004018080602001828103825260278152602001806143246027913960400191505060405180910390fd5b611e57816114e1565b611e93576040805182815290517ff4a991ad9e7f9711696f7bd41529beb4c470d75788573535d4ca3f0857c79ce89181900360200190a1611087565b6000818152600f602052604081206002810154600182015491929091611eb76132de565b0390506000611ec882612a306132e6565b905080831115611f0e576040805186815290517ff4a991ad9e7f9711696f7bd41529beb4c470d75788573535d4ca3f0857c79ce89181900360200190a150505050611087565b6000611f1b846001613211565b60028601819055604080518881526020810183905281519293507f674d81537534435d24d5bc9f92955722ba22b136d98346a01ad4777f48b5581c929081900390910190a1505050505050565b611f70612884565b6001600160a01b0316611f8161183b565b6001600160a01b031614611fdc576040805162461bcd60e51b815260206004820181905260248201527f4f776e61626c653a2063616c6c6572206973206e6f7420746865206f776e6572604482015290519081900360640190fd5b6010805460ff19166001179055565b6000611ff56140f3565b6000838152600f60209081526040918290208251815460026001821615610100026000190190911604601f810184900490930281016080908101909452606081018381529093919284928491908401828280156120935780601f1061206857610100808354040283529160200191612093565b820191906000526020600020905b81548152906001019060200180831161207657829003601f168201915b505050505081526020016001820154815260200160028201548152505090508060200151600014156120c9576000915050610e59565b600019816020015114156120e1576001915050610e59565b604081015160208201516000906120f66132de565b039050600061210782612a306132e6565b9050600061211783612a30613350565b90508184141561212f57600295505050505050610e59565b8161213b856001613211565b1480156121495750610e1081105b1561215c57600295505050505050610e59565b5060039695505050505050565b612174611781612884565b6121af5760405162461bcd60e51b81526004018080602001828103825260318152602001806145656031913960400191505060405180910390fd5b6121bb848484846133b5565b50505050565b6060806121cd836113eb565b50909150600190506121de84611feb565b60038111156121e957fe5b14156122c7576121f761158b565b6040518060600160405280602e8152602001614243602e91396040516020018083805190602001908083835b602083106122425780518252601f199092019160209182019101612223565b51815160209384036101000a600019018019909216911617905285519190930192850191508083835b6020831061228a5780518252601f19909201916020918201910161226b565b6001836020036101000a03801982511681845116808217855250505050505090500192505050604051602081830303815290604052915050610e59565b60026122d284611feb565b60038111156122dd57fe5b141561244e576122eb61158b565b60376000836040516020018080602001828103825283818151815260200191508051906020019080838360005b83811015612330578181015183820152602001612318565b50505050905090810190601f16801561235d5780820380516001836020036101000a031916815260200191505b50925050506040516020818303038152906040528051906020012081526020019081526020016000206040516020018083805190602001908083835b602083106123b85780518252601f199092019160209182019101612399565b6001836020036101000a038019825116818451168082178552505050505050905001828054600181600116156101000203166002900480156124315780601f1061240f576101008083540402835291820191612431565b820191906000526020600020905b81548152906001019060200180831161241d575b505092505050604051602081830303815290604052915050610e59565b61245661158b565b60386000836040516020018080602001828103825283818151815260200191508051906020019080838360005b8381101561249b578181015183820152602001612483565b50505050905090810190601f1680156124c85780820380516001836020036101000a031916815260200191505b50925050506040516020818303038152906040528051906020012081526020019081526020016000206040516020018083805190602001908083835b602083106125235780518252601f199092019160209182019101612504565b6001836020036101000a0380198251168184511680821785525050505050509050018280546001816001161561010002031660029004801561259c5780601f1061257a57610100808354040283529182019161259c565b820191906000526020600020905b815481529060010190602001808311612588575b505060408051601f198184030181529190529695505050505050565b60008181526020819052604081206111bd906129a7565b600f6020908152600091825260409182902080548351601f600260001961010060018616150201909316929092049182018490048402810184019094528084529092918391908301828280156126665780601f1061263b57610100808354040283529160200191612666565b820191906000526020600020905b81548152906001019060200180831161264957829003601f168201915b5050505050908060010154908060020154905083565b604080516a4d494e5445525f524f4c4560a81b8152905190819003600b01902081565b6000828152602081905260409020600201546126bd90611144612884565b6112295760405162461bcd60e51b81526004018080602001828103825260308152602001806143776030913960400191505060405180910390fd5b604080516a5041555345525f524f4c4560a81b8152905190819003600b01902081565b6001600160a01b03918216600090815260066020908152604080832093909416825291909152205460ff1690565b612751612884565b6001600160a01b031661276261183b565b6001600160a01b0316146127bd576040805162461bcd60e51b815260206004820181905260248201527f4f776e61626c653a2063616c6c6572206973206e6f7420746865206f776e6572604482015290519081900360640190fd5b6001600160a01b0381166128025760405162461bcd60e51b815260040180806020018281038252602681526020018061421d6026913960400191505060405180910390fd5b600d546040516001600160a01b038084169216907f8be0079c531659141344cd1fd0a4f28419497f9722a3daafe3b4186f6b6457e090600090a3600d805473ffffffffffffffffffffffffffffffffffffffff19166001600160a01b0392909216919091179055565b610e1081565b60006111bd60038363ffffffff61340716565b3390565b6000818152600560205260409020805473ffffffffffffffffffffffffffffffffffffffff19166001600160a01b03841690811790915581906128ca826114b3565b6001600160a01b03167f8c5be1e5ebec7d5bd14f71427d1e84f3dd0314c0f7b2291e5b200ac8c7c3b92560405160405180910390a45050565b600061290e82612871565b6129495760405162461bcd60e51b815260040180806020018281038252602c81526020018061434b602c913960400191505060405180910390fd5b6000612954836114b3565b9050806001600160a01b0316846001600160a01b0316148061298f5750836001600160a01b031661298484610ef5565b6001600160a01b0316145b8061299f575061299f818561271b565b949350505050565b60006111bd82612daf565b826001600160a01b03166129c5826114b3565b6001600160a01b031614612a0a5760405162461bcd60e51b81526004018080602001828103825260298152602001806144c46029913960400191505060405180910390fd5b6001600160a01b038216612a4f5760405162461bcd60e51b81526004018080602001828103825260248152602001806142af6024913960400191505060405180910390fd5b612a5a838383613413565b612a65600082612888565b6001600160a01b0383166000908152600260205260409020612a8d908263ffffffff61347316565b506001600160a01b0382166000908152600260205260409020612ab6908263ffffffff61347f16565b50612ac96003828463ffffffff61348b16565b5080826001600160a01b0316846001600160a01b03167fddf252ad1be2c89b69c2b068fc378daa952ba7f163c4a11628f55a4df523b3ef60405160405180910390a4505050565b6000828152602081905260409020612b2e908263ffffffff6134a116565b1561118e57612b3b612884565b6001600160a01b0316816001600160a01b0316837f2f8788117e7eff1d82e926ec794901d17c78024a50270940304540a733656f0d60405160405180910390a45050565b60006111ba83836134b6565b6000828152602081905260409020612ba9908263ffffffff61351a16565b1561118e57612bb6612884565b6001600160a01b0316816001600160a01b0316837ff6391f5c32d9c69d2a47ea670b442974b53935d1edc7fd64eb21e047a839171b60405160405180910390a45050565b612c026113e2565b612c53576040805162461bcd60e51b815260206004820152601460248201527f5061757361626c653a206e6f7420706175736564000000000000000000000000604482015290519081900360640190fd5b600b805460ff191690557f5db9ee0a495bf2e6ff9c91a7834c1ba4fdd244a5e8aa4e537bd38aeae4b073aa612c86612884565b604080516001600160a01b039092168252519081900360200190a1565b6000612cae826114b3565b9050612cbc81600084613413565b612cc7600083612888565b6000828152600960205260409020546002600019610100600184161502019091160415612d05576000828152600960205260408120612d0591614114565b6001600160a01b0381166000908152600260205260409020612d2d908363ffffffff61347316565b50612d3f60038363ffffffff61352f16565b5060405182906000906001600160a01b038416907fddf252ad1be2c89b69c2b068fc378daa952ba7f163c4a11628f55a4df523b3ef908390a45050565b6000808080612d8b868661353b565b9097909650945050505050565b6000612da58484846135b6565b90505b9392505050565b5490565b6001600160a01b038216612e0e576040805162461bcd60e51b815260206004820181905260248201527f4552433732313a206d696e7420746f20746865207a65726f2061646472657373604482015290519081900360640190fd5b612e1781612871565b15612e69576040805162461bcd60e51b815260206004820152601c60248201527f4552433732313a20746f6b656e20616c7265616479206d696e74656400000000604482015290519081900360640190fd5b612e7560008383613413565b6001600160a01b0382166000908152600260205260409020612e9d908263ffffffff61347f16565b50612eb06003828463ffffffff61348b16565b5060405181906001600160a01b038416906000907fddf252ad1be2c89b69c2b068fc378daa952ba7f163c4a11628f55a4df523b3ef908290a45050565b80546001019055565b60006032547f00000000000000000000000000000000000000000000000000000000000000006001600160a01b03166370a08231306040518263ffffffff1660e01b815260040180826001600160a01b03166001600160a01b0316815260200191505060206040518083038186803b158015612f7157600080fd5b505afa158015612f85573d6000803e3d6000fd5b505050506040513d6020811015612f9b57600080fd5b50511015612fda5760405162461bcd60e51b815260040180806020018281038252602b8152602001806142d3602b913960400191505060405180910390fd5b612fe960315460325484613680565b600081815260366020908152604091829020869055815183815291519293507fe5f5b44d72d4143c278eb745c4acc0695c4a5bc616be5beecf46abe29661780e92918290030190a192915050565b61303f6113e2565b15613091576040805162461bcd60e51b815260206004820152601060248201527f5061757361626c653a2070617573656400000000000000000000000000000000604482015290519081900360640190fd5b600b805460ff191660011790557f62e78cea01bee320cd4e420270b5ea74000d11b0c9f74754ebdbfc544b05a258612c86612884565b60006111ba836001600160a01b038416613842565b600082815260366020908152604080832054808452600f909252909120606061310f61310a85612710613350565b61385a565b80519091506131249083906020840190614079565b5061312d6132de565b6001830155600061313d846114b3565b90507f7313be463d71a79047d01fb641b7aaf895b37a35b44b91ed31ae512266e80f28848361316a6132de565b846040518085815260200180602001848152602001836001600160a01b03166001600160a01b03168152602001828103825285818151815260200191508051906020019080838360005b838110156131cc5781810151838201526020016131b4565b50505050905090810190601f1680156131f95780820380516001836020036101000a031916815260200191505b509550505050505060405180910390a1505050505050565b6000828201838110156111ba576040805162461bcd60e51b815260206004820152601b60248201527f536166654d6174683a206164646974696f6e206f766572666c6f770000000000604482015290519081900360640190fd5b60008261327a575060006111bd565b8282028284828161328757fe5b04146111ba5760405162461bcd60e51b81526004018080602001828103825260218152602001806144776021913960400191505060405180910390fd5b61118e828260405180602001604052806000815250613946565b603954420190565b600080821161333c576040805162461bcd60e51b815260206004820152601a60248201527f536166654d6174683a206469766973696f6e206279207a65726f000000000000604482015290519081900360640190fd5b600082848161334757fe5b04949350505050565b6000816133a4576040805162461bcd60e51b815260206004820152601860248201527f536166654d6174683a206d6f64756c6f206279207a65726f0000000000000000604482015290519081900360640190fd5b8183816133ad57fe5b069392505050565b6133c08484846129b2565b6133cc84848484613998565b6121bb5760405162461bcd60e51b81526004018080602001828103825260328152602001806141eb6032913960400191505060405180910390fd5b60006111ba8383613842565b6001600160a01b038216158061342d575061342d816114e1565b6134685760405162461bcd60e51b815260040180806020018281038252602781526020018061453e6027913960400191505060405180910390fd5b61102d838383613b5a565b60006111ba8383613b65565b60006111ba8383613c2b565b6000612da584846001600160a01b038516613c75565b60006111ba836001600160a01b038416613c2b565b815460009082106134f85760405162461bcd60e51b815260040180806020018281038252602281526020018061416f6022913960400191505060405180910390fd5b82600001828154811061350757fe5b9060005260206000200154905092915050565b60006111ba836001600160a01b038416613b65565b60006111ba8383613d0c565b81546000908190831061357f5760405162461bcd60e51b81526004018080602001828103825260228152602001806144556022913960400191505060405180910390fd5b600084600001848154811061359057fe5b906000526020600020906002020190508060000154816001015492509250509250929050565b600082815260018401602052604081205482816136515760405162461bcd60e51b81526004018080602001828103825283818151815260200191508051906020019080838360005b838110156136165781810151838201526020016135fe565b50505050905090810190601f1680156136435780820380516001836020036101000a031916815260200191505b509250505060405180910390fd5b5084600001600182038154811061366457fe5b9060005260206000209060020201600101549150509392505050565b60007f00000000000000000000000000000000000000000000000000000000000000006001600160a01b0316634000aea07f000000000000000000000000000000000000000000000000000000000000000085878660405160200180838152602001828152602001925050506040516020818303038152906040526040518463ffffffff1660e01b815260040180846001600160a01b03166001600160a01b0316815260200183815260200180602001828103825283818151815260200191508051906020019080838360005b8381101561376557818101518382015260200161374d565b50505050905090810190601f1680156137925780820380516001836020036101000a031916815260200191505b50945050505050602060405180830381600087803b1580156137b357600080fd5b505af11580156137c7573d6000803e3d6000fd5b505050506040513d60208110156137dd57600080fd5b50506000848152600e60205260408120546137fd90869085903090613de0565b6000868152600e602052604090205490915061382090600163ffffffff61321116565b6000868152600e60205260409020556138398582613e27565b95945050505050565b60009081526001919091016020526040902054151590565b606060005b600a81101561394057601181600a811061387557fe5b601091828204019190066002029054906101000a900461ffff1661ffff16831161393857601281600a81106138a657fe5b01805460408051602060026001851615610100026000190190941693909304601f8101849004840282018401909252818152929183018282801561392b5780601f106139005761010080835404028352916020019161392b565b820191906000526020600020905b81548152906001019060200180831161390e57829003601f168201915b5050505050915050610e59565b60010161385f565b50919050565b6139508383612db3565b61395d6000848484613998565b61102d5760405162461bcd60e51b81526004018080602001828103825260328152602001806141eb6032913960400191505060405180910390fd5b60006139ac846001600160a01b0316613e53565b6139b85750600161299f565b6060613b08630a85bd0160e11b6139cd612884565b88878760405160240180856001600160a01b03166001600160a01b03168152602001846001600160a01b03166001600160a01b0316815260200183815260200180602001828103825283818151815260200191508051906020019080838360005b83811015613a46578181015183820152602001613a2e565b50505050905090810190601f168015613a735780820380516001836020036101000a031916815260200191505b5095505050505050604051602081830303815290604052907bffffffffffffffffffffffffffffffffffffffffffffffffffffffff19166020820180517bffffffffffffffffffffffffffffffffffffffffffffffffffffffff83818316178352505050506040518060600160405280603281526020016141eb603291396001600160a01b038816919063ffffffff613e5916565b90506000818060200190516020811015613b2157600080fd5b50517fffffffff0000000000000000000000000000000000000000000000000000000016630a85bd0160e11b1492505050949350505050565b61102d838383613e68565b60008181526001830160205260408120548015613c215783546000198083019190810190600090879083908110613b9857fe5b9060005260206000200154905080876000018481548110613bb557fe5b600091825260208083209091019290925582815260018981019092526040902090840190558654879080613be557fe5b600190038181906000526020600020016000905590558660010160008781526020019081526020016000206000905560019450505050506111bd565b60009150506111bd565b6000613c378383613842565b613c6d575081546001818101845560008481526020808220909301849055845484825282860190935260409020919091556111bd565b5060006111bd565b600082815260018401602052604081205480613cda575050604080518082018252838152602080820184815286546001818101895560008981528481209551600290930290950191825591519082015586548684528188019092529290912055612da8565b82856000016001830381548110613ced57fe5b9060005260206000209060020201600101819055506000915050612da8565b60008181526001830160205260408120548015613c215783546000198083019190810190600090879083908110613d3f57fe5b9060005260206000209060020201905080876000018481548110613d5f57fe5b600091825260208083208454600290930201918255600193840154918401919091558354825289830190526040902090840190558654879080613d9e57fe5b60008281526020808220600260001990940193840201828155600190810183905592909355888152898201909252604082209190915594506111bd9350505050565b60408051602080820196909652808201949094526001600160a01b039290921660608401526080808401919091528151808403909101815260a09092019052805191012090565b604080516020808201949094528082019290925280518083038201815260609092019052805191012090565b3b151590565b6060612da58484600085613eb7565b613e7383838361102d565b613e7b6113e2565b1561102d5760405162461bcd60e51b815260040180806020018281038252602b815260200180614191602b913960400191505060405180910390fd5b606082471015613ef85760405162461bcd60e51b81526004018080602001828103825260268152602001806142fe6026913960400191505060405180910390fd5b613f0185613e53565b613f52576040805162461bcd60e51b815260206004820152601d60248201527f416464726573733a2063616c6c20746f206e6f6e2d636f6e7472616374000000604482015290519081900360640190fd5b60006060866001600160a01b031685876040518082805190602001908083835b60208310613f915780518252601f199092019160209182019101613f72565b6001836020036101000a03801982511681845116808217855250505050505090500191505060006040518083038185875af1925050503d8060008114613ff3576040519150601f19603f3d011682016040523d82523d6000602084013e613ff8565b606091505b5091509150614008828286614013565b979650505050505050565b60608315614022575081612da8565b8251156140325782518084602001fd5b60405162461bcd60e51b81526020600482018181528451602484015284518593919283926044019190850190808383600083156136165781810151838201526020016135fe565b828054600181600116156101000203166002900490600052602060002090601f016020900481019282601f106140ba57805160ff19168380011785556140e7565b828001600101855582156140e7579182015b828111156140e75782518255916020019190600101906140cc565b50611cfa929150614154565b60405180606001604052806060815260200160008152602001600081525090565b50805460018160011615610100020316600290046000825580601f1061413a5750611087565b601f01602090049060005260206000209081019061108791905b610ef291905b80821115611cfa576000815560010161415a56fe456e756d657261626c655365743a20696e646578206f7574206f6620626f756e64734552433732315061757361626c653a20746f6b656e207472616e73666572207768696c6520706175736564416363657373436f6e74726f6c3a2073656e646572206d75737420626520616e2061646d696e20746f206772616e744552433732313a207472616e7366657220746f206e6f6e20455243373231526563656976657220696d706c656d656e7465724f776e61626c653a206e6577206f776e657220697320746865207a65726f2061646472657373516d5764316d6e374475477978394279664e6571437367645355734a5a316372616769746761796773714476456d4552433732315072657365744d696e7465725061757365724175746f49643a206d75737420686176652070617573657220726f6c6520746f2070617573654552433732313a207472616e7366657220746f20746865207a65726f20616464726573734e6f7420656e6f756768204c494e4b202d2066696c6c20636f6e7472616374207769746820666175636574416464726573733a20696e73756666696369656e742062616c616e636520666f722063616c6c4f6e6c7920746865204f776e65722063616e20776174657220612043727970744f72636869642e4552433732313a206f70657261746f7220717565727920666f72206e6f6e6578697374656e7420746f6b656e416363657373436f6e74726f6c3a2073656e646572206d75737420626520616e2061646d696e20746f207265766f6b654552433732313a20617070726f76652063616c6c6572206973206e6f74206f776e6572206e6f7220617070726f76656420666f7220616c6c4552433732313a2062616c616e636520717565727920666f7220746865207a65726f20616464726573734552433732313a206f776e657220717565727920666f72206e6f6e6578697374656e7420746f6b656e45746865722076616c75652073656e742069732062656c6f7720746865207072696365456e756d657261626c654d61703a20696e646578206f7574206f6620626f756e6473536166654d6174683a206d756c7469706c69636174696f6e206f766572666c6f774552433732313a20617070726f76656420717565727920666f72206e6f6e6578697374656e7420746f6b656e4552433732313a207472616e73666572206f6620746f6b656e2074686174206973206e6f74206f776e596f752063616e20706c616e74206d696e696d756d20312c206d6178696d756d2032302043727970744f7263686964734552433732313a20617070726f76616c20746f2063757272656e74206f776e6572446561642043727970744f7263686964732063616e6e6f74206265207472616e736665727265644552433732313a207472616e736665722063616c6c6572206973206e6f74206f776e6572206e6f7220617070726f7665644f6e6c7920746865204f776e65722063616e206765726d696e61746520612043727970744f72636869642e4f6e6c7920746865204f776e65722063616e20636f6d706f737420612043727970744f72636869642e4552433732315072657365744d696e7465725061757365724175746f49643a206d7573742068617665206d696e74657220726f6c6520746f206d696e744552433732314275726e61626c653a2063616c6c6572206973206e6f74206f776e6572206e6f7220617070726f7665644552433732315072657365744d696e7465725061757365724175746f49643a206d75737420686176652070617573657220726f6c6520746f20756e7061757365416363657373436f6e74726f6c3a2063616e206f6e6c792072656e6f756e636520726f6c657320666f722073656c66a2646970667358221220128cf2526be5390c945d66a6ce8ab683f918a668f6d11de6f3c218f6eead5f9264736f6c63430006060033516d55384d4e7a6e5436464431763558646e536541366345597178706a374d676b4543706f7433614345526572582f637970726970656469756d2d63616c63656f6c75732e6a736f6e516d55384d4e7a6e5436464431763558646e536541366345597178706a374d676b4543706f7433614345526572582f64656e64726f7068796c61782d6c696e64656e69692e6a736f6e516d56376e735167484e76777952786262685035396948336772715366713367376a6f53506153314a47526d4a612f70617068696f706564696c756d2d726f7468736368696c6469616e756d2e6a736f6e516d55384d4e7a6e5436464431763558646e536541366345597178706a374d676b4543706f7433614345526572582f706c6174616e74686572612d617a6f726963612e6a736f6e516d56376e735167484e76777952786262685035396948336772715366713367376a6f53506153314a47526d4a612f637970726970656469756d2d63616c63656f6c75732e6a736f6e516d56376e735167484e76777952786262685035396948336772715366713367376a6f53506153314a47526d4a612f7068616c61656e6f707369732d6d6963686f6c69747a69692e6a736f6e516d55384d4e7a6e5436464431763558646e536541366345597178706a374d676b4543706f7433614345526572582f76616e64612d636f6572756c65612e6a736f6e516d55384d4e7a6e5436464431763558646e536541366345597178706a374d676b4543706f7433614345526572582f6d696c746f6e69612d6b61796173696d61652e6a736f6e516d56376e735167484e76777952786262685035396948336772715366713367376a6f53506153314a47526d4a612f70617068696f706564696c756d2d766965746e616d656e73652e6a736f6e516d55384d4e7a6e5436464431763558646e536541366345597178706a374d676b4543706f7433614345526572582f6775617269616e7468652d617572616e74696163612e6a736f6e516d56376e735167484e76777952786262685035396948336772715366713367376a6f53506153314a47526d4a612f7368656e7a68656e6963612d6f726368696461636561652e6a736f6e516d56376e735167484e76777952786262685035396948336772715366713367376a6f53506153314a47526d4a612f6d696c746f6e69612d6b61796173696d61652e6a736f6e516d56376e735167484e76777952786262685035396948336772715366713367376a6f53506153314a47526d4a612f76616e64612d636f6572756c65612e6a736f6e516d55384d4e7a6e5436464431763558646e536541366345597178706a374d676b4543706f7433614345526572582f70617068696f706564696c756d2d726f7468736368696c6469616e756d2e6a736f6e516d56376e735167484e76777952786262685035396948336772715366713367376a6f53506153314a47526d4a612f6775617269616e7468652d617572616e74696163612e6a736f6e516d55384d4e7a6e5436464431763558646e536541366345597178706a374d676b4543706f7433614345526572582f70617068696f706564696c756d2d766965746e616d656e73652e6a736f6e516d56376e735167484e76777952786262685035396948336772715366713367376a6f53506153314a47526d4a612f64656e64726f7068796c61782d6c696e64656e69692e6a736f6e516d55384d4e7a6e5436464431763558646e536541366345597178706a374d676b4543706f7433614345526572582f7068616c61656e6f707369732d6d6963686f6c69747a69692e6a736f6e516d55384d4e7a6e5436464431763558646e536541366345597178706a374d676b4543706f7433614345526572582f7368656e7a68656e6963612d6f726368696461636561652e6a736f6e516d56376e735167484e76777952786262685035396948336772715366713367376a6f53506153314a47526d4a612f706c6174616e74686572612d617a6f726963612e6a736f6e",
  "linkReferences": {},
  "deployedLinkReferences": {}
}