{
  "_format": "hh-sol-artifact-1",
  "contractName": "ERC721PresetMinterPauserAutoId",
  "sourceName": "@openzeppelin/contracts/presets/ERC721PresetMinterPauserAutoId.sol",
  "abi": [
    {
      "inputs": [
        {
          "internalType": "string",
          "name": "name",
          "type": "string"
        },
        {
          "internalType": "string",
          "name": "symbol",
          "type": "string"
        },
        {
          "internalType": "string",
          "name": "baseURI",
          "type": "string"
        }
      ],
      "stateMutability": "nonpayable",
      "type": "constructor"
    },
    {
      "anonymous": false,
      "inputs": [
        {
          "indexed": true,
          "internalType": "address",
          "name": "owner",
          "type": "address"
        },
        {
          "indexed": true,
          "internalType": "address",
          "name": "approved",
          "type": "address"
        },
        {
          "indexed": true,
          "internalType": "uint256",
          "name": "tokenId",
          "type": "uint256"
        }
      ],
      "name": "Approval",
      "type": "event"
    },
    {
      "anonymous": false,
      "inputs": [
        {
          "indexed": true,
          "internalType": "address",
          "name": "owner",
          "type": "address"
        },
        {
          "indexed": true,
          "internalType": "address",
          "name": "operator",
          "type": "address"
        },
        {
          "indexed": false,
          "internalType": "bool",
          "name": "approved",
          "type": "bool"
        }
      ],
      "name": "ApprovalForAll",
      "type": "event"
    },
    {
      "anonymous": false,
      "inputs": [
        {
          "indexed": false,
          "internalType": "address",
          "name": "account",
          "type": "address"
        }
      ],
      "name": "Paused",
      "type": "event"
    },
    {
      "anonymous": false,
      "inputs": [
        {
          "indexed": true,
          "internalType": "bytes32",
          "name": "role",
          "type": "bytes32"
        },
        {
          "indexed": true,
          "internalType": "bytes32",
          "name": "previousAdminRole",
          "type": "bytes32"
        },
        {
          "indexed": true,
          "internalType": "bytes32",
          "name": "newAdminRole",
          "type": "bytes32"
        }
      ],
      "name": "RoleAdminChanged",
      "type": "event"
    },
    {
      "anonymous": false,
      "inputs": [
        {
          "indexed": true,
          "internalType": "bytes32",
          "name": "role",
          "type": "bytes32"
        },
        {
          "indexed": true,
          "internalType": "address",
          "name": "account",
          "type": "address"
        },
        {
          "indexed": true,
          "internalType": "address",
          "name": "sender",
          "type": "address"
        }
      ],
      "name": "RoleGranted",
      "type": "event"
    },
    {
      "anonymous": false,
      "inputs": [
        {
          "indexed": true,
          "internalType": "bytes32",
          "name": "role",
          "type": "bytes32"
        },
        {
          "indexed": true,
          "internalType": "address",
          "name": "account",
          "type": "address"
        },
        {
          "indexed": true,
          "internalType": "address",
          "name": "sender",
          "type": "address"
        }
      ],
      "name": "RoleRevoked",
      "type": "event"
    },
    {
      "anonymous": false,
      "inputs": [
        {
          "indexed": true,
          "internalType": "address",
          "name": "from",
          "type": "address"
        },
        {
          "indexed": true,
          "internalType": "address",
          "name": "to",
          "type": "address"
        },
        {
          "indexed": true,
          "internalType": "uint256",
          "name": "tokenId",
          "type": "uint256"
        }
      ],
      "name": "Transfer",
      "type": "event"
    },
    {
      "anonymous": false,
      "inputs": [
        {
          "indexed": false,
          "internalType": "address",
          "name": "account",
          "type": "address"
        }
      ],
      "name": "Unpaused",
      "type": "event"
    },
    {
      "inputs": [],
      "name": "DEFAULT_ADMIN_ROLE",
      "outputs": [
        {
          "internalType": "bytes32",
          "name": "",
          "type": "bytes32"
        }
      ],
      "stateMutability": "view",
      "type": "function"
    },
    {
      "inputs": [],
      "name": "MINTER_ROLE",
      "outputs": [
        {
          "internalType": "bytes32",
          "name": "",
          "type": "bytes32"
        }
      ],
      "stateMutability": "view",
      "type": "function"
    },
    {
      "inputs": [],
      "name": "PAUSER_ROLE",
      "outputs": [
        {
          "internalType": "bytes32",
          "name": "",
          "type": "bytes32"
        }
      ],
      "stateMutability": "view",
      "type": "function"
    },
    {
      "inputs": [
        {
          "internalType": "address",
          "name": "to",
          "type": "address"
        },
        {
          "internalType": "uint256",
          "name": "tokenId",
          "type": "uint256"
        }
      ],
      "name": "approve",
      "outputs": [],
      "stateMutability": "nonpayable",
      "type": "function"
    },
    {
      "inputs": [
        {
          "internalType": "address",
          "name": "owner",
          "type": "address"
        }
      ],
      "name": "balanceOf",
      "outputs": [
        {
          "internalType": "uint256",
          "name": "",
          "type": "uint256"
        }
      ],
      "stateMutability": "view",
      "type": "function"
    },
    {
      "inputs": [],
      "name": "baseURI",
      "outputs": [
        {
          "internalType": "string",
          "name": "",
          "type": "string"
        }
      ],
      "stateMutability": "view",
      "type": "function"
    },
    {
      "inputs": [
        {
          "internalType": "uint256",
          "name": "tokenId",
          "type": "uint256"
        }
      ],
      "name": "burn",
      "outputs": [],
      "stateMutability": "nonpayable",
      "type": "function"
    },
    {
      "inputs": [
        {
          "internalType": "uint256",
          "name": "tokenId",
          "type": "uint256"
        }
      ],
      "name": "getApproved",
      "outputs": [
        {
          "internalType": "address",
          "name": "",
          "type": "address"
        }
      ],
      "stateMutability": "view",
      "type": "function"
    },
    {
      "inputs": [
        {
          "internalType": "bytes32",
          "name": "role",
          "type": "bytes32"
        }
      ],
      "name": "getRoleAdmin",
      "outputs": [
        {
          "internalType": "bytes32",
          "name": "",
          "type": "bytes32"
        }
      ],
      "stateMutability": "view",
      "type": "function"
    },
    {
      "inputs": [
        {
          "internalType": "bytes32",
          "name": "role",
          "type": "bytes32"
        },
        {
          "internalType": "uint256",
          "name": "index",
          "type": "uint256"
        }
      ],
      "name": "getRoleMember",
      "outputs": [
        {
          "internalType": "address",
          "name": "",
          "type": "address"
        }
      ],
      "stateMutability": "view",
      "type": "function"
    },
    {
      "inputs": [
        {
          "internalType": "bytes32",
          "name": "role",
          "type": "bytes32"
        }
      ],
      "name": "getRoleMemberCount",
      "outputs": [
        {
          "internalType": "uint256",
          "name": "",
          "type": "uint256"
        }
      ],
      "stateMutability": "view",
      "type": "function"
    },
    {
      "inputs": [
        {
          "internalType": "bytes32",
          "name": "role",
          "type": "bytes32"
        },
        {
          "internalType": "address",
          "name": "account",
          "type": "address"
        }
      ],
      "name": "grantRole",
      "outputs": [],
      "stateMutability": "nonpayable",
      "type": "function"
    },
    {
      "inputs": [
        {
          "internalType": "bytes32",
          "name": "role",
          "type": "bytes32"
        },
        {
          "internalType": "address",
          "name": "account",
          "type": "address"
        }
      ],
      "name": "hasRole",
      "outputs": [
        {
          "internalType": "bool",
          "name": "",
          "type": "bool"
        }
      ],
      "stateMutability": "view",
      "type": "function"
    },
    {
      "inputs": [
        {
          "internalType": "address",
          "name": "owner",
          "type": "address"
        },
        {
          "internalType": "address",
          "name": "operator",
          "type": "address"
        }
      ],
      "name": "isApprovedForAll",
      "outputs": [
        {
          "internalType": "bool",
          "name": "",
          "type": "bool"
        }
      ],
      "stateMutability": "view",
      "type": "function"
    },
    {
      "inputs": [
        {
          "internalType": "address",
          "name": "to",
          "type": "address"
        }
      ],
      "name": "mint",
      "outputs": [],
      "stateMutability": "nonpayable",
      "type": "function"
    },
    {
      "inputs": [],
      "name": "name",
      "outputs": [
        {
          "internalType": "string",
          "name": "",
          "type": "string"
        }
      ],
      "stateMutability": "view",
      "type": "function"
    },
    {
      "inputs": [
        {
          "internalType": "uint256",
          "name": "tokenId",
          "type": "uint256"
        }
      ],
      "name": "ownerOf",
      "outputs": [
        {
          "internalType": "address",
          "name": "",
          "type": "address"
        }
      ],
      "stateMutability": "view",
      "type": "function"
    },
    {
      "inputs": [],
      "name": "pause",
      "outputs": [],
      "stateMutability": "nonpayable",
      "type": "function"
    },
    {
      "inputs": [],
      "name": "paused",
      "outputs": [
        {
          "internalType": "bool",
          "name": "",
          "type": "bool"
        }
      ],
      "stateMutability": "view",
      "type": "function"
    },
    {
      "inputs": [
        {
          "internalType": "bytes32",
          "name": "role",
          "type": "bytes32"
        },
        {
          "internalType": "address",
          "name": "account",
          "type": "address"
        }
      ],
      "name": "renounceRole",
      "outputs": [],
      "stateMutability": "nonpayable",
      "type": "function"
    },
    {
      "inputs": [
        {
          "internalType": "bytes32",
          "name": "role",
          "type": "bytes32"
        },
        {
          "internalType": "address",
          "name": "account",
          "type": "address"
        }
      ],
      "name": "revokeRole",
      "outputs": [],
      "stateMutability": "nonpayable",
      "type": "function"
    },
    {
      "inputs": [
        {
          "internalType": "address",
          "name": "from",
          "type": "address"
        },
        {
          "internalType": "address",
          "name": "to",
          "type": "address"
        },
        {
          "internalType": "uint256",
          "name": "tokenId",
          "type": "uint256"
        }
      ],
      "name": "safeTransferFrom",
      "outputs": [],
      "stateMutability": "nonpayable",
      "type": "function"
    },
    {
      "inputs": [
        {
          "internalType": "address",
          "name": "from",
          "type": "address"
        },
        {
          "internalType": "address",
          "name": "to",
          "type": "address"
        },
        {
          "internalType": "uint256",
          "name": "tokenId",
          "type": "uint256"
        },
        {
          "internalType": "bytes",
          "name": "_data",
          "type": "bytes"
        }
      ],
      "name": "safeTransferFrom",
      "outputs": [],
      "stateMutability": "nonpayable",
      "type": "function"
    },
    {
      "inputs": [
        {
          "internalType": "address",
          "name": "operator",
          "type": "address"
        },
        {
          "internalType": "bool",
          "name": "approved",
          "type": "bool"
        }
      ],
      "name": "setApprovalForAll",
      "outputs": [],
      "stateMutability": "nonpayable",
      "type": "function"
    },
    {
      "inputs": [
        {
          "internalType": "bytes4",
          "name": "interfaceId",
          "type": "bytes4"
        }
      ],
      "name": "supportsInterface",
      "outputs": [
        {
          "internalType": "bool",
          "name": "",
          "type": "bool"
        }
      ],
      "stateMutability": "view",
      "type": "function"
    },
    {
      "inputs": [],
      "name": "symbol",
      "outputs": [
        {
          "internalType": "string",
          "name": "",
          "type": "string"
        }
      ],
      "stateMutability": "view",
      "type": "function"
    },
    {
      "inputs": [
        {
          "internalType": "uint256",
          "name": "index",
          "type": "uint256"
        }
      ],
      "name": "tokenByIndex",
      "outputs": [
        {
          "internalType": "uint256",
          "name": "",
          "type": "uint256"
        }
      ],
      "stateMutability": "view",
      "type": "function"
    },
    {
      "inputs": [
        {
          "internalType": "address",
          "name": "owner",
          "type": "address"
        },
        {
          "internalType": "uint256",
          "name": "index",
          "type": "uint256"
        }
      ],
      "name": "tokenOfOwnerByIndex",
      "outputs": [
        {
          "internalType": "uint256",
          "name": "",
          "type": "uint256"
        }
      ],
      "stateMutability": "view",
      "type": "function"
    },
    {
      "inputs": [
        {
          "internalType": "uint256",
          "name": "tokenId",
          "type": "uint256"
        }
      ],
      "name": "tokenURI",
      "outputs": [
        {
          "internalType": "string",
          "name": "",
          "type": "string"
        }
      ],
      "stateMutability": "view",
      "type": "function"
    },
    {
      "inputs": [],
      "name": "totalSupply",
      "outputs": [
        {
          "internalType": "uint256",
          "name": "",
          "type": "uint256"
        }
      ],
      "stateMutability": "view",
      "type": "function"
    },
    {
      "inputs": [
        {
          "internalType": "address",
          "name": "from",
          "type": "address"
        },
        {
          "internalType": "address",
          "name": "to",
          "type": "address"
        },
        {
          "internalType": "uint256",
          "name": "tokenId",
          "type": "uint256"
        }
      ],
      "name": "transferFrom",
      "outputs": [],
      "stateMutability": "nonpayable",
      "type": "function"
    },
    {
      "inputs": [],
      "name": "unpause",
      "outputs": [],
      "stateMutability": "nonpayable",
      "type": "function"
    }
  ],
  "bytecode": "0x60806040523480156200001157600080fd5b5060405162002e7038038062002e70833981810160405260608110156200003757600080fd5b81019080805160405193929190846401000000008211156200005857600080fd5b9083019060208201858111156200006e57600080fd5b82516401000000008111828201881017156200008957600080fd5b82525081516020918201929091019080838360005b83811015620000b85781810151838201526020016200009e565b50505050905090810190601f168015620000e65780820380516001836020036101000a031916815260200191505b50604052602001805160405193929190846401000000008211156200010a57600080fd5b9083019060208201858111156200012057600080fd5b82516401000000008111828201881017156200013b57600080fd5b82525081516020918201929091019080838360005b838110156200016a57818101518382015260200162000150565b50505050905090810190601f168015620001985780820380516001836020036101000a031916815260200191505b5060405260200180516040519392919084640100000000821115620001bc57600080fd5b908301906020820185811115620001d257600080fd5b8251640100000000811182820188101715620001ed57600080fd5b82525081516020918201929091019080838360005b838110156200021c57818101518382015260200162000202565b50505050905090810190601f1680156200024a5780820380516001836020036101000a031916815260200191505b5060405250849150839050620002706301ffc9a760e01b6001600160e01b03620003ae16565b81516200028590600790602085019062000584565b5080516200029b90600890602084019062000584565b50620002b76380ac58cd60e01b6001600160e01b03620003ae16565b620002d2635b5e139f60e01b6001600160e01b03620003ae16565b620002ed63780e9d6360e01b6001600160e01b03620003ae16565b5050600b805460ff19169055620003216000620003126001600160e01b036200043616565b6001600160e01b036200043b16565b604080516a4d494e5445525f524f4c4560a81b8152905190819003600b0190206200035990620003126001600160e01b036200043616565b604080516a5041555345525f524f4c4560a81b8152905190819003600b0190206200039190620003126001600160e01b036200043616565b620003a5816001600160e01b036200045416565b50505062000626565b6001600160e01b031980821614156200040e576040805162461bcd60e51b815260206004820152601c60248201527f4552433136353a20696e76616c696420696e7465726661636520696400000000604482015290519081900360640190fd5b6001600160e01b0319166000908152600160208190526040909120805460ff19169091179055565b335b90565b6200045082826001600160e01b036200046916565b5050565b80516200045090600a90602084019062000584565b6000828152602081815260409091206200048e91839062001bcb620004eb821b17901c565b156200045057620004a76001600160e01b036200043616565b6001600160a01b0316816001600160a01b0316837f2f8788117e7eff1d82e926ec794901d17c78024a50270940304540a733656f0d60405160405180910390a45050565b60006200050b836001600160a01b0384166001600160e01b036200051416565b90505b92915050565b60006200052b83836001600160e01b036200056c16565b62000563575081546001818101845560008481526020808220909301849055845484825282860190935260409020919091556200050e565b5060006200050e565b60009081526001919091016020526040902054151590565b828054600181600116156101000203166002900490600052602060002090601f016020900481019282601f10620005c757805160ff1916838001178555620005f7565b82800160010185558215620005f7579182015b82811115620005f7578251825591602001919060010190620005da565b506200060592915062000609565b5090565b6200043891905b8082111562000605576000815560010162000610565b61283a80620006366000396000f3fe608060405234801561001057600080fd5b50600436106101f05760003560e01c80636a6278421161010f578063a22cb465116100a2578063d539139311610071578063d5391393146106a3578063d547741f146106ab578063e63ab1e9146106d7578063e985e9c5146106df576101f0565b8063a22cb46514610575578063b88d4fde146105a3578063c87b56dd14610669578063ca15c87314610686576101f0565b80639010d07c116100de5780639010d07c1461051657806391d148541461053957806395d89b4114610565578063a217fddf1461056d576101f0565b80636a627842146104ba5780636c0360eb146104e057806370a08231146104e85780638456cb591461050e576101f0565b80632f745c591161018757806342966c681161015657806342966c681461045b5780634f6ccce7146104785780635c975abb146104955780636352211e1461049d576101f0565b80632f745c59146103c557806336568abe146103f15780633f4ba83a1461041d57806342842e0e14610425576101f0565b806318160ddd116101c357806318160ddd1461032c57806323b872dd14610346578063248a9ca31461037c5780632f2ff15d14610399576101f0565b806301ffc9a7146101f557806306fdde0314610248578063081812fc146102c5578063095ea7b3146102fe575b600080fd5b6102346004803603602081101561020b57600080fd5b50357fffffffff000000000000000000000000000000000000000000000000000000001661070d565b604080519115158252519081900360200190f35b610250610748565b6040805160208082528351818301528351919283929083019185019080838360005b8381101561028a578181015183820152602001610272565b50505050905090810190601f1680156102b75780820380516001836020036101000a031916815260200191505b509250505060405180910390f35b6102e2600480360360208110156102db57600080fd5b50356107df565b604080516001600160a01b039092168252519081900360200190f35b61032a6004803603604081101561031457600080fd5b506001600160a01b038135169060200135610841565b005b61033461091c565b60408051918252519081900360200190f35b61032a6004803603606081101561035c57600080fd5b506001600160a01b0381358116916020810135909116906040013561092d565b6103346004803603602081101561039257600080fd5b5035610984565b61032a600480360360408110156103af57600080fd5b50803590602001356001600160a01b0316610999565b610334600480360360408110156103db57600080fd5b506001600160a01b038135169060200135610a05565b61032a6004803603604081101561040757600080fd5b50803590602001356001600160a01b0316610a36565b61032a610a97565b61032a6004803603606081101561043b57600080fd5b506001600160a01b03813581169160208101359091169060400135610b08565b61032a6004803603602081101561047157600080fd5b5035610b23565b6103346004803603602081101561048e57600080fd5b5035610b75565b610234610b91565b6102e2600480360360208110156104b357600080fd5b5035610b9a565b61032a600480360360208110156104d057600080fd5b50356001600160a01b0316610bc8565b610250610c4c565b610334600480360360208110156104fe57600080fd5b50356001600160a01b0316610cad565b61032a610d15565b6102e26004803603604081101561052c57600080fd5b5080359060200135610d84565b6102346004803603604081101561054f57600080fd5b50803590602001356001600160a01b0316610da2565b610250610dc0565b610334610e21565b61032a6004803603604081101561058b57600080fd5b506001600160a01b0381351690602001351515610e26565b61032a600480360360808110156105b957600080fd5b6001600160a01b038235811692602081013590911691604082013591908101906080810160608201356401000000008111156105f457600080fd5b82018360208201111561060657600080fd5b8035906020019184600183028401116401000000008311171561062857600080fd5b91908080601f016020809104026020016040519081016040528093929190818152602001838380828437600092019190915250929550610f2b945050505050565b6102506004803603602081101561067f57600080fd5b5035610f89565b6103346004803603602081101561069c57600080fd5b503561120c565b610334611223565b61032a600480360360408110156106c157600080fd5b50803590602001356001600160a01b0316611246565b61033461129f565b610234600480360360408110156106f557600080fd5b506001600160a01b03813581169160200135166112c2565b7fffffffff00000000000000000000000000000000000000000000000000000000811660009081526001602052604090205460ff165b919050565b60078054604080516020601f60026000196101006001881615020190951694909404938401819004810282018101909252828152606093909290918301828280156107d45780601f106107a9576101008083540402835291602001916107d4565b820191906000526020600020905b8154815290600101906020018083116107b757829003601f168201915b505050505090505b90565b60006107ea826112f0565b6108255760405162461bcd60e51b815260040180806020018281038252602c815260200180612653602c913960400191505060405180910390fd5b506000908152600560205260409020546001600160a01b031690565b600061084c82610b9a565b9050806001600160a01b0316836001600160a01b0316141561089f5760405162461bcd60e51b81526004018080602001828103825260218152602001806126d76021913960400191505060405180910390fd5b806001600160a01b03166108b1611303565b6001600160a01b031614806108d257506108d2816108cd611303565b6112c2565b61090d5760405162461bcd60e51b81526004018080602001828103825260388152602001806125a66038913960400191505060405180910390fd5b6109178383611307565b505050565b6000610928600361138d565b905090565b61093e610938611303565b82611398565b6109795760405162461bcd60e51b81526004018080602001828103825260318152602001806126f86031913960400191505060405180910390fd5b61091783838361143c565b60009081526020819052604090206002015490565b6000828152602081905260409020600201546109bc906109b7611303565b610da2565b6109f75760405162461bcd60e51b815260040180806020018281038252602f815260200180612487602f913960400191505060405180910390fd5b610a01828261159a565b5050565b6001600160a01b0382166000908152600260205260408120610a2d908363ffffffff61160916565b90505b92915050565b610a3e611303565b6001600160a01b0316816001600160a01b031614610a8d5760405162461bcd60e51b815260040180806020018281038252602f8152602001806127d6602f913960400191505060405180910390fd5b610a018282611615565b604080516a5041555345525f524f4c4560a81b8152905190819003600b019020610ac3906109b7611303565b610afe5760405162461bcd60e51b81526004018080602001828103825260408152602001806127966040913960400191505060405180910390fd5b610b06611684565b565b61091783838360405180602001604052806000815250610f2b565b610b2e610938611303565b610b695760405162461bcd60e51b81526004018080602001828103825260308152602001806127666030913960400191505060405180910390fd5b610b728161172d565b50565b600080610b8960038463ffffffff61180616565b509392505050565b600b5460ff1690565b6000610a3082604051806060016040528060298152602001612608602991396003919063ffffffff61182216565b604080516a4d494e5445525f524f4c4560a81b8152905190819003600b019020610bf4906109b7611303565b610c2f5760405162461bcd60e51b815260040180806020018281038252603d815260200180612729603d913960400191505060405180910390fd5b610c4281610c3d600c611839565b61183d565b610b72600c611977565b600a8054604080516020601f60026000196101006001881615020190951694909404938401819004810282018101909252828152606093909290918301828280156107d45780601f106107a9576101008083540402835291602001916107d4565b60006001600160a01b038216610cf45760405162461bcd60e51b815260040180806020018281038252602a8152602001806125de602a913960400191505060405180910390fd5b6001600160a01b0382166000908152600260205260409020610a309061138d565b604080516a5041555345525f524f4c4560a81b8152905190819003600b019020610d41906109b7611303565b610d7c5760405162461bcd60e51b815260040180806020018281038252603e8152602001806124e8603e913960400191505060405180910390fd5b610b06611980565b6000828152602081905260408120610a2d908363ffffffff61160916565b6000828152602081905260408120610a2d908363ffffffff611a1016565b60088054604080516020601f60026000196101006001881615020190951694909404938401819004810282018101909252828152606093909290918301828280156107d45780601f106107a9576101008083540402835291602001916107d4565b600081565b610e2e611303565b6001600160a01b0316826001600160a01b03161415610e94576040805162461bcd60e51b815260206004820152601960248201527f4552433732313a20617070726f766520746f2063616c6c657200000000000000604482015290519081900360640190fd5b8060066000610ea1611303565b6001600160a01b03908116825260208083019390935260409182016000908120918716808252919093529120805460ff191692151592909217909155610ee5611303565b60408051841515815290516001600160a01b0392909216917f17307eab39ab6107e8899845ad3d59bd9653f200f220920489ca2b5937696c319181900360200190a35050565b610f3c610f36611303565b83611398565b610f775760405162461bcd60e51b81526004018080602001828103825260318152602001806126f86031913960400191505060405180910390fd5b610f8384848484611a25565b50505050565b6060610f94826112f0565b610fcf5760405162461bcd60e51b815260040180806020018281038252602f8152602001806126a8602f913960400191505060405180910390fd5b60008281526009602090815260409182902080548351601f60026000196101006001861615020190931692909204918201849004840281018401909452808452606093928301828280156110645780601f1061103957610100808354040283529160200191611064565b820191906000526020600020905b81548152906001019060200180831161104757829003601f168201915b505050505090506060611075610c4c565b905080516000141561108957509050610743565b81511561114a5780826040516020018083805190602001908083835b602083106110c45780518252601f1990920191602091820191016110a5565b51815160209384036101000a600019018019909216911617905285519190930192850191508083835b6020831061110c5780518252601f1990920191602091820191016110ed565b6001836020036101000a0380198251168184511680821785525050505050509050019250505060405160208183030381529060405292505050610743565b8061115485611a77565b6040516020018083805190602001908083835b602083106111865780518252601f199092019160209182019101611167565b51815160209384036101000a600019018019909216911617905285519190930192850191508083835b602083106111ce5780518252601f1990920191602091820191016111af565b6001836020036101000a0380198251168184511680821785525050505050509050019250505060405160208183030381529060405292505050919050565b6000818152602081905260408120610a309061138d565b604080516a4d494e5445525f524f4c4560a81b8152905190819003600b01902081565b600082815260208190526040902060020154611264906109b7611303565b610a8d5760405162461bcd60e51b81526004018080602001828103825260308152602001806125766030913960400191505060405180910390fd5b604080516a5041555345525f524f4c4560a81b8152905190819003600b01902081565b6001600160a01b03918216600090815260066020908152604080832093909416825291909152205460ff1690565b6000610a3060038363ffffffff611b8616565b3390565b600081815260056020526040902080547fffffffffffffffffffffffff0000000000000000000000000000000000000000166001600160a01b038416908117909155819061135482610b9a565b6001600160a01b03167f8c5be1e5ebec7d5bd14f71427d1e84f3dd0314c0f7b2291e5b200ac8c7c3b92560405160405180910390a45050565b6000610a3082611839565b60006113a3826112f0565b6113de5760405162461bcd60e51b815260040180806020018281038252602c81526020018061254a602c913960400191505060405180910390fd5b60006113e983610b9a565b9050806001600160a01b0316846001600160a01b031614806114245750836001600160a01b0316611419846107df565b6001600160a01b0316145b80611434575061143481856112c2565b949350505050565b826001600160a01b031661144f82610b9a565b6001600160a01b0316146114945760405162461bcd60e51b815260040180806020018281038252602981526020018061267f6029913960400191505060405180910390fd5b6001600160a01b0382166114d95760405162461bcd60e51b81526004018080602001828103825260248152602001806125266024913960400191505060405180910390fd5b6114e4838383611b92565b6114ef600082611307565b6001600160a01b0383166000908152600260205260409020611517908263ffffffff611b9d16565b506001600160a01b0382166000908152600260205260409020611540908263ffffffff611ba916565b506115536003828463ffffffff611bb516565b5080826001600160a01b0316846001600160a01b03167fddf252ad1be2c89b69c2b068fc378daa952ba7f163c4a11628f55a4df523b3ef60405160405180910390a4505050565b60008281526020819052604090206115b8908263ffffffff611bcb16565b15610a01576115c5611303565b6001600160a01b0316816001600160a01b0316837f2f8788117e7eff1d82e926ec794901d17c78024a50270940304540a733656f0d60405160405180910390a45050565b6000610a2d8383611be0565b6000828152602081905260409020611633908263ffffffff611c4416565b15610a0157611640611303565b6001600160a01b0316816001600160a01b0316837ff6391f5c32d9c69d2a47ea670b442974b53935d1edc7fd64eb21e047a839171b60405160405180910390a45050565b61168c610b91565b6116dd576040805162461bcd60e51b815260206004820152601460248201527f5061757361626c653a206e6f7420706175736564000000000000000000000000604482015290519081900360640190fd5b600b805460ff191690557f5db9ee0a495bf2e6ff9c91a7834c1ba4fdd244a5e8aa4e537bd38aeae4b073aa611710611303565b604080516001600160a01b039092168252519081900360200190a1565b600061173882610b9a565b905061174681600084611b92565b611751600083611307565b600082815260096020526040902054600260001961010060018416150201909116041561178f57600082815260096020526040812061178f916123e0565b6001600160a01b03811660009081526002602052604090206117b7908363ffffffff611b9d16565b506117c960038363ffffffff611c5916565b5060405182906000906001600160a01b038416907fddf252ad1be2c89b69c2b068fc378daa952ba7f163c4a11628f55a4df523b3ef908390a45050565b60008080806118158686611c65565b9097909650945050505050565b600061182f848484611ce0565b90505b9392505050565b5490565b6001600160a01b038216611898576040805162461bcd60e51b815260206004820181905260248201527f4552433732313a206d696e7420746f20746865207a65726f2061646472657373604482015290519081900360640190fd5b6118a1816112f0565b156118f3576040805162461bcd60e51b815260206004820152601c60248201527f4552433732313a20746f6b656e20616c7265616479206d696e74656400000000604482015290519081900360640190fd5b6118ff60008383611b92565b6001600160a01b0382166000908152600260205260409020611927908263ffffffff611ba916565b5061193a6003828463ffffffff611bb516565b5060405181906001600160a01b038416906000907fddf252ad1be2c89b69c2b068fc378daa952ba7f163c4a11628f55a4df523b3ef908290a45050565b80546001019055565b611988610b91565b156119da576040805162461bcd60e51b815260206004820152601060248201527f5061757361626c653a2070617573656400000000000000000000000000000000604482015290519081900360640190fd5b600b805460ff191660011790557f62e78cea01bee320cd4e420270b5ea74000d11b0c9f74754ebdbfc544b05a258611710611303565b6000610a2d836001600160a01b038416611daa565b611a3084848461143c565b611a3c84848484611dc2565b610f835760405162461bcd60e51b81526004018080602001828103825260328152602001806124b66032913960400191505060405180910390fd5b606081611ab8575060408051808201909152600181527f30000000000000000000000000000000000000000000000000000000000000006020820152610743565b8160005b8115611ad057600101600a82049150611abc565b60608167ffffffffffffffff81118015611ae957600080fd5b506040519080825280601f01601f191660200182016040528015611b14576020820181803683370190505b50859350905060001982015b8315611b7d57600a840660300160f81b82828060019003935081518110611b4357fe5b60200101907effffffffffffffffffffffffffffffffffffffffffffffffffffffffffffff1916908160001a905350600a84049350611b20565b50949350505050565b6000610a2d8383611daa565b610917838383611f84565b6000610a2d8383611fd3565b6000610a2d8383612099565b600061182f84846001600160a01b0385166120e3565b6000610a2d836001600160a01b038416612099565b81546000908210611c225760405162461bcd60e51b815260040180806020018281038252602281526020018061243a6022913960400191505060405180910390fd5b826000018281548110611c3157fe5b9060005260206000200154905092915050565b6000610a2d836001600160a01b038416611fd3565b6000610a2d838361217a565b815460009081908310611ca95760405162461bcd60e51b81526004018080602001828103825260228152602001806126316022913960400191505060405180910390fd5b6000846000018481548110611cba57fe5b906000526020600020906002020190508060000154816001015492509250509250929050565b60008281526001840160205260408120548281611d7b5760405162461bcd60e51b81526004018080602001828103825283818151815260200191508051906020019080838360005b83811015611d40578181015183820152602001611d28565b50505050905090810190601f168015611d6d5780820380516001836020036101000a031916815260200191505b509250505060405180910390fd5b50846000016001820381548110611d8e57fe5b9060005260206000209060020201600101549150509392505050565b60009081526001919091016020526040902054151590565b6000611dd6846001600160a01b031661224e565b611de257506001611434565b6060611f32630a85bd0160e11b611df7611303565b88878760405160240180856001600160a01b03166001600160a01b03168152602001846001600160a01b03166001600160a01b0316815260200183815260200180602001828103825283818151815260200191508051906020019080838360005b83811015611e70578181015183820152602001611e58565b50505050905090810190601f168015611e9d5780820380516001836020036101000a031916815260200191505b5095505050505050604051602081830303815290604052907bffffffffffffffffffffffffffffffffffffffffffffffffffffffff19166020820180517bffffffffffffffffffffffffffffffffffffffffffffffffffffffff83818316178352505050506040518060600160405280603281526020016124b6603291396001600160a01b038816919063ffffffff61225416565b90506000818060200190516020811015611f4b57600080fd5b50517fffffffff0000000000000000000000000000000000000000000000000000000016630a85bd0160e11b1492505050949350505050565b611f8f838383610917565b611f97610b91565b156109175760405162461bcd60e51b815260040180806020018281038252602b81526020018061245c602b913960400191505060405180910390fd5b6000818152600183016020526040812054801561208f578354600019808301919081019060009087908390811061200657fe5b906000526020600020015490508087600001848154811061202357fe5b60009182526020808320909101929092558281526001898101909252604090209084019055865487908061205357fe5b60019003818190600052602060002001600090559055866001016000878152602001908152602001600020600090556001945050505050610a30565b6000915050610a30565b60006120a58383611daa565b6120db57508154600181810184556000848152602080822090930184905584548482528286019093526040902091909155610a30565b506000610a30565b600082815260018401602052604081205480612148575050604080518082018252838152602080820184815286546001818101895560008981528481209551600290930290950191825591519082015586548684528188019092529290912055611832565b8285600001600183038154811061215b57fe5b9060005260206000209060020201600101819055506000915050611832565b6000818152600183016020526040812054801561208f57835460001980830191908101906000908790839081106121ad57fe5b90600052602060002090600202019050808760000184815481106121cd57fe5b60009182526020808320845460029093020191825560019384015491840191909155835482528983019052604090209084019055865487908061220c57fe5b6000828152602080822060026000199094019384020182815560019081018390559290935588815289820190925260408220919091559450610a309350505050565b3b151590565b606061182f8484600085856122688561224e565b6122b9576040805162461bcd60e51b815260206004820152601d60248201527f416464726573733a2063616c6c20746f206e6f6e2d636f6e7472616374000000604482015290519081900360640190fd5b60006060866001600160a01b031685876040518082805190602001908083835b602083106122f85780518252601f1990920191602091820191016122d9565b6001836020036101000a03801982511681845116808217855250505050505090500191505060006040518083038185875af1925050503d806000811461235a576040519150601f19603f3d011682016040523d82523d6000602084013e61235f565b606091505b509150915061236f82828661237a565b979650505050505050565b60608315612389575081611832565b8251156123995782518084602001fd5b60405162461bcd60e51b8152602060048201818152845160248401528451859391928392604401919085019080838360008315611d40578181015183820152602001611d28565b50805460018160011615610100020316600290046000825580601f106124065750610b72565b6000918252602091829020610b72926107dc92601f01048101905b808211156124355760008155600101612421565b509056fe456e756d657261626c655365743a20696e646578206f7574206f6620626f756e64734552433732315061757361626c653a20746f6b656e207472616e73666572207768696c6520706175736564416363657373436f6e74726f6c3a2073656e646572206d75737420626520616e2061646d696e20746f206772616e744552433732313a207472616e7366657220746f206e6f6e20455243373231526563656976657220696d706c656d656e7465724552433732315072657365744d696e7465725061757365724175746f49643a206d75737420686176652070617573657220726f6c6520746f2070617573654552433732313a207472616e7366657220746f20746865207a65726f20616464726573734552433732313a206f70657261746f7220717565727920666f72206e6f6e6578697374656e7420746f6b656e416363657373436f6e74726f6c3a2073656e646572206d75737420626520616e2061646d696e20746f207265766f6b654552433732313a20617070726f76652063616c6c6572206973206e6f74206f776e6572206e6f7220617070726f76656420666f7220616c6c4552433732313a2062616c616e636520717565727920666f7220746865207a65726f20616464726573734552433732313a206f776e657220717565727920666f72206e6f6e6578697374656e7420746f6b656e456e756d657261626c654d61703a20696e646578206f7574206f6620626f756e64734552433732313a20617070726f76656420717565727920666f72206e6f6e6578697374656e7420746f6b656e4552433732313a207472616e73666572206f6620746f6b656e2074686174206973206e6f74206f776e4552433732314d657461646174613a2055524920717565727920666f72206e6f6e6578697374656e7420746f6b656e4552433732313a20617070726f76616c20746f2063757272656e74206f776e65724552433732313a207472616e736665722063616c6c6572206973206e6f74206f776e6572206e6f7220617070726f7665644552433732315072657365744d696e7465725061757365724175746f49643a206d7573742068617665206d696e74657220726f6c6520746f206d696e744552433732314275726e61626c653a2063616c6c6572206973206e6f74206f776e6572206e6f7220617070726f7665644552433732315072657365744d696e7465725061757365724175746f49643a206d75737420686176652070617573657220726f6c6520746f20756e7061757365416363657373436f6e74726f6c3a2063616e206f6e6c792072656e6f756e636520726f6c657320666f722073656c66a2646970667358221220c1408c49b25de4e32407edaecfba66555e33c8d9a31627cc7efa102f0fb1fa6a64736f6c63430006060033",
  "linkReferences": {},
  "deployedLinkReferences": {}
}